{
    "_format": "hh-sol-artifact-1",
    "contractName": "AlienPoster",
    "sourceName": "contracts/AlienPoster.sol",
    "abi": [
        {
            "inputs": [],
            "stateMutability": "payable",
            "type": "constructor"
        },
        {
            "anonymous": false,
            "inputs": [
                {
                    "indexed": true,
                    "internalType": "address",
                    "name": "owner",
                    "type": "address"
                },
                {
                    "indexed": true,
                    "internalType": "address",
                    "name": "approved",
                    "type": "address"
                },
                {
                    "indexed": true,
                    "internalType": "uint256",
                    "name": "tokenId",
                    "type": "uint256"
                }
            ],
            "name": "Approval",
            "type": "event"
        },
        {
            "anonymous": false,
            "inputs": [
                {
                    "indexed": true,
                    "internalType": "address",
                    "name": "owner",
                    "type": "address"
                },
                {
                    "indexed": true,
                    "internalType": "address",
                    "name": "operator",
                    "type": "address"
                },
                {
                    "indexed": false,
                    "internalType": "bool",
                    "name": "approved",
                    "type": "bool"
                }
            ],
            "name": "ApprovalForAll",
            "type": "event"
        },
        {
            "anonymous": false,
            "inputs": [
                {
                    "indexed": true,
                    "internalType": "address",
                    "name": "previousOwner",
                    "type": "address"
                },
                {
                    "indexed": true,
                    "internalType": "address",
                    "name": "newOwner",
                    "type": "address"
                }
            ],
            "name": "OwnershipTransferred",
            "type": "event"
        },
        {
            "anonymous": false,
            "inputs": [
                {
                    "indexed": false,
                    "internalType": "address",
                    "name": "",
                    "type": "address"
                },
                {
                    "indexed": false,
                    "internalType": "uint256",
                    "name": "",
                    "type": "uint256"
                }
            ],
            "name": "Received",
            "type": "event"
        },
        {
            "anonymous": false,
            "inputs": [
                {
                    "indexed": true,
                    "internalType": "address",
                    "name": "from",
                    "type": "address"
                },
                {
                    "indexed": true,
                    "internalType": "address",
                    "name": "to",
                    "type": "address"
                },
                {
                    "indexed": true,
                    "internalType": "uint256",
                    "name": "tokenId",
                    "type": "uint256"
                }
            ],
            "name": "Transfer",
            "type": "event"
        },
        {
            "inputs": [
                {
                    "internalType": "address",
                    "name": "to",
                    "type": "address"
                },
                {
                    "internalType": "uint256",
                    "name": "tokenId",
                    "type": "uint256"
                }
            ],
            "name": "approve",
            "outputs": [],
            "stateMutability": "nonpayable",
            "type": "function"
        },
        {
            "inputs": [
                {
                    "internalType": "address",
                    "name": "owner",
                    "type": "address"
                }
            ],
            "name": "balanceOf",
            "outputs": [
                {
                    "internalType": "uint256",
                    "name": "",
                    "type": "uint256"
                }
            ],
            "stateMutability": "view",
            "type": "function"
        },
        {
            "inputs": [
                {
                    "internalType": "uint256",
                    "name": "tokenId",
                    "type": "uint256"
                }
            ],
            "name": "getApproved",
            "outputs": [
                {
                    "internalType": "address",
                    "name": "",
                    "type": "address"
                }
            ],
            "stateMutability": "view",
            "type": "function"
        },
        {
            "inputs": [
                {
                    "internalType": "address",
                    "name": "owner",
                    "type": "address"
                },
                {
                    "internalType": "address",
                    "name": "operator",
                    "type": "address"
                }
            ],
            "name": "isApprovedForAll",
            "outputs": [
                {
                    "internalType": "bool",
                    "name": "",
                    "type": "bool"
                }
            ],
            "stateMutability": "view",
            "type": "function"
        },
        {
            "inputs": [],
            "name": "maxPerWallet",
            "outputs": [
                {
                    "internalType": "uint256",
                    "name": "",
                    "type": "uint256"
                }
            ],
            "stateMutability": "view",
            "type": "function"
        },
        {
            "inputs": [],
            "name": "maxSupply",
            "outputs": [
                {
                    "internalType": "uint256",
                    "name": "",
                    "type": "uint256"
                }
            ],
            "stateMutability": "view",
            "type": "function"
        },
        {
            "inputs": [
                {
                    "internalType": "uint256",
                    "name": "quantity_",
                    "type": "uint256"
                }
            ],
            "name": "mint",
            "outputs": [],
            "stateMutability": "payable",
            "type": "function"
        },
        {
            "inputs": [],
            "name": "mintEnabled",
            "outputs": [
                {
                    "internalType": "bool",
                    "name": "",
                    "type": "bool"
                }
            ],
            "stateMutability": "view",
            "type": "function"
        },
        {
            "inputs": [],
            "name": "mintPrice",
            "outputs": [
                {
                    "internalType": "uint256",
                    "name": "",
                    "type": "uint256"
                }
            ],
            "stateMutability": "view",
            "type": "function"
        },
        {
            "inputs": [],
            "name": "name",
            "outputs": [
                {
                    "internalType": "string",
                    "name": "",
                    "type": "string"
                }
            ],
            "stateMutability": "view",
            "type": "function"
        },
        {
            "inputs": [],
            "name": "owner",
            "outputs": [
                {
                    "internalType": "address",
                    "name": "",
                    "type": "address"
                }
            ],
            "stateMutability": "view",
            "type": "function"
        },
        {
            "inputs": [
                {
                    "internalType": "uint256",
                    "name": "tokenId",
                    "type": "uint256"
                }
            ],
            "name": "ownerOf",
            "outputs": [
                {
                    "internalType": "address",
                    "name": "",
                    "type": "address"
                }
            ],
            "stateMutability": "view",
            "type": "function"
        },
        {
            "inputs": [
                {
                    "internalType": "address",
                    "name": "dest",
                    "type": "address"
                }
            ],
            "name": "payments",
            "outputs": [
                {
                    "internalType": "uint256",
                    "name": "",
                    "type": "uint256"
                }
            ],
            "stateMutability": "view",
            "type": "function"
        },
        {
            "inputs": [],
            "name": "renounceOwnership",
            "outputs": [],
            "stateMutability": "nonpayable",
            "type": "function"
        },
        {
            "inputs": [
                {
                    "internalType": "address",
                    "name": "from",
                    "type": "address"
                },
                {
                    "internalType": "address",
                    "name": "to",
                    "type": "address"
                },
                {
                    "internalType": "uint256",
                    "name": "tokenId",
                    "type": "uint256"
                }
            ],
            "name": "safeTransferFrom",
            "outputs": [],
            "stateMutability": "nonpayable",
            "type": "function"
        },
        {
            "inputs": [
                {
                    "internalType": "address",
                    "name": "from",
                    "type": "address"
                },
                {
                    "internalType": "address",
                    "name": "to",
                    "type": "address"
                },
                {
                    "internalType": "uint256",
                    "name": "tokenId",
                    "type": "uint256"
                },
                {
                    "internalType": "bytes",
                    "name": "_data",
                    "type": "bytes"
                }
            ],
            "name": "safeTransferFrom",
            "outputs": [],
            "stateMutability": "nonpayable",
            "type": "function"
        },
        {
            "inputs": [
                {
                    "internalType": "address",
                    "name": "operator",
                    "type": "address"
                },
                {
                    "internalType": "bool",
                    "name": "approved",
                    "type": "bool"
                }
            ],
            "name": "setApprovalForAll",
            "outputs": [],
            "stateMutability": "nonpayable",
            "type": "function"
        },
        {
            "inputs": [
                {
                    "internalType": "string",
                    "name": "baseTokenUri_",
                    "type": "string"
                }
            ],
            "name": "setBaseTokenUri",
            "outputs": [],
            "stateMutability": "nonpayable",
            "type": "function"
        },
        {
            "inputs": [
                {
                    "internalType": "bool",
                    "name": "mintEnabled_",
                    "type": "bool"
                }
            ],
            "name": "setMintEnabled",
            "outputs": [],
            "stateMutability": "nonpayable",
            "type": "function"
        },
        {
            "inputs": [
                {
                    "internalType": "bytes4",
                    "name": "interfaceId",
                    "type": "bytes4"
                }
            ],
            "name": "supportsInterface",
            "outputs": [
                {
                    "internalType": "bool",
                    "name": "",
                    "type": "bool"
                }
            ],
            "stateMutability": "view",
            "type": "function"
        },
        {
            "inputs": [],
            "name": "symbol",
            "outputs": [
                {
                    "internalType": "string",
                    "name": "",
                    "type": "string"
                }
            ],
            "stateMutability": "view",
            "type": "function"
        },
        {
            "inputs": [
                {
                    "internalType": "uint256",
                    "name": "tokenId_",
                    "type": "uint256"
                }
            ],
            "name": "tokenURI",
            "outputs": [
                {
                    "internalType": "string",
                    "name": "",
                    "type": "string"
                }
            ],
            "stateMutability": "view",
            "type": "function"
        },
        {
            "inputs": [],
            "name": "totalSupply",
            "outputs": [
                {
                    "internalType": "uint256",
                    "name": "",
                    "type": "uint256"
                }
            ],
            "stateMutability": "view",
            "type": "function"
        },
        {
            "inputs": [
                {
                    "internalType": "address",
                    "name": "from",
                    "type": "address"
                },
                {
                    "internalType": "address",
                    "name": "to",
                    "type": "address"
                },
                {
                    "internalType": "uint256",
                    "name": "tokenId",
                    "type": "uint256"
                }
            ],
            "name": "transferFrom",
            "outputs": [],
            "stateMutability": "nonpayable",
            "type": "function"
        },
        {
            "inputs": [
                {
                    "internalType": "address",
                    "name": "newOwner",
                    "type": "address"
                }
            ],
            "name": "transferOwnership",
            "outputs": [],
            "stateMutability": "nonpayable",
            "type": "function"
        },
        {
            "inputs": [
                {
                    "internalType": "address",
                    "name": "",
                    "type": "address"
                }
            ],
            "name": "walletMints",
            "outputs": [
                {
                    "internalType": "uint256",
                    "name": "",
                    "type": "uint256"
                }
            ],
            "stateMutability": "view",
            "type": "function"
        },
        {
            "inputs": [
                {
                    "internalType": "address payable",
                    "name": "payee",
                    "type": "address"
                }
            ],
            "name": "withdrawPayments",
            "outputs": [],
            "stateMutability": "nonpayable",
            "type": "function"
        },
        {
            "stateMutability": "payable",
            "type": "receive"
        }
    ],
    "bytecode": "0x6101006040526040518060400160405280600b81526020017f416c69656e506f737465720000000000000000000000000000000000000000008152506040518060400160405280600281526020017f415000000000000000000000000000000000000000000000000000000000000081525081600090805190602001906200008992919062000225565b508060019080519060200190620000a292919062000225565b505050620000c5620000b96200015760201b60201c565b6200015f60201b60201c565b604051620000d390620002b6565b604051809103906000f080158015620000f0573d6000803e3d6000fd5b5073ffffffffffffffffffffffffffffffffffffffff1660808173ffffffffffffffffffffffffffffffffffffffff1660601b81525050662386f26fc1000060a0818152505060006007819055506103e860c08181525050600360e0818152505062000348565b600033905090565b6000600660009054906101000a900473ffffffffffffffffffffffffffffffffffffffff16905081600660006101000a81548173ffffffffffffffffffffffffffffffffffffffff021916908373ffffffffffffffffffffffffffffffffffffffff1602179055508173ffffffffffffffffffffffffffffffffffffffff168173ffffffffffffffffffffffffffffffffffffffff167f8be0079c531659141344cd1fd0a4f28419497f9722a3daafe3b4186f6b6457e060405160405180910390a35050565b8280546200023390620002e3565b90600052602060002090601f016020900481019282620002575760008555620002a3565b82601f106200027257805160ff1916838001178555620002a3565b82800160010185558215620002a3579182015b82811115620002a257825182559160200191906001019062000285565b5b509050620002b29190620002c4565b5090565b610d098062003d5683390190565b5b80821115620002df576000816000905550600101620002c5565b5090565b60006002820490506001821680620002fc57607f821691505b6020821081141562000313576200031262000319565b5b50919050565b7f4e487b7100000000000000000000000000000000000000000000000000000000600052602260045260246000fd5b60805160601c60a05160c05160e0516139ae620003a860003960008181610aea0152610f9e015260008181610f2e0152611211015260008181610bc00152610ec101526000818161123701528181611a000152611b5401526139ae6000f3fe6080604052600436106101a05760003560e01c80638da5cb5b116100ec578063d12397301161008a578063e985e9c511610064578063e985e9c5146105fd578063f0293fd31461063a578063f2fde38b14610677578063f46a04eb146106a0576101e0565b8063d12397301461056a578063d5abeb0114610595578063e2982c21146105c0576101e0565b8063a0712d68116100c6578063a0712d68146104bf578063a22cb465146104db578063b88d4fde14610504578063c87b56dd1461052d576101e0565b80638da5cb5b1461044057806395652cfa1461046b57806395d89b4114610494576101e0565b806331b3eb94116101595780636352211e116101335780636352211e146103845780636817c76c146103c157806370a08231146103ec578063715018a614610429576101e0565b806331b3eb941461030757806342842e0e14610330578063453c231014610359576101e0565b806301ffc9a7146101e557806306fdde0314610222578063081812fc1461024d578063095ea7b31461028a57806318160ddd146102b357806323b872dd146102de576101e0565b366101e0577f88a5966d370b9919b20f3e2c13ff65706f196a4e32cc2c12bf57088f8852587433346040516101d6929190612cf9565b60405180910390a1005b600080fd5b3480156101f157600080fd5b5061020c60048036038101906102079190612750565b6106c9565b6040516102199190612d22565b60405180910390f35b34801561022e57600080fd5b506102376107ab565b6040516102449190612d3d565b60405180910390f35b34801561025957600080fd5b50610274600480360381019061026f91906127e7565b61083d565b6040516102819190612c77565b60405180910390f35b34801561029657600080fd5b506102b160048036038101906102ac91906126eb565b6108c2565b005b3480156102bf57600080fd5b506102c86109da565b6040516102d59190612fdf565b60405180910390f35b3480156102ea57600080fd5b50610305600480360381019061030091906125e5565b6109e0565b005b34801561031357600080fd5b5061032e60048036038101906103299190612580565b610a40565b005b34801561033c57600080fd5b50610357600480360381019061035291906125e5565b610ac8565b005b34801561036557600080fd5b5061036e610ae8565b60405161037b9190612fdf565b60405180910390f35b34801561039057600080fd5b506103ab60048036038101906103a691906127e7565b610b0c565b6040516103b89190612c77565b60405180910390f35b3480156103cd57600080fd5b506103d6610bbe565b6040516103e39190612fdf565b60405180910390f35b3480156103f857600080fd5b50610413600480360381019061040e9190612557565b610be2565b6040516104209190612fdf565b60405180910390f35b34801561043557600080fd5b5061043e610c9a565b005b34801561044c57600080fd5b50610455610d22565b6040516104629190612c77565b60405180910390f35b34801561047757600080fd5b50610492600480360381019061048d91906127a2565b610d4c565b005b3480156104a057600080fd5b506104a9610dde565b6040516104b69190612d3d565b60405180910390f35b6104d960048036038101906104d491906127e7565b610e70565b005b3480156104e757600080fd5b5061050260048036038101906104fd91906126af565b611108565b005b34801561051057600080fd5b5061052b60048036038101906105269190612634565b61111e565b005b34801561053957600080fd5b50610554600480360381019061054f91906127e7565b611180565b6040516105619190612d3d565b60405180910390f35b34801561057657600080fd5b5061057f6111fc565b60405161058c9190612d22565b60405180910390f35b3480156105a157600080fd5b506105aa61120f565b6040516105b79190612fdf565b60405180910390f35b3480156105cc57600080fd5b506105e760048036038101906105e29190612557565b611233565b6040516105f49190612fdf565b60405180910390f35b34801561060957600080fd5b50610624600480360381019061061f91906125a9565b6112e5565b6040516106319190612d22565b60405180910390f35b34801561064657600080fd5b50610661600480360381019061065c9190612557565b611379565b60405161066e9190612fdf565b60405180910390f35b34801561068357600080fd5b5061069e60048036038101906106999190612557565b611391565b005b3480156106ac57600080fd5b506106c760048036038101906106c29190612727565b611489565b005b60007f80ac58cd000000000000000000000000000000000000000000000000000000007bffffffffffffffffffffffffffffffffffffffffffffffffffffffff1916827bffffffffffffffffffffffffffffffffffffffffffffffffffffffff1916148061079457507f5b5e139f000000000000000000000000000000000000000000000000000000007bffffffffffffffffffffffffffffffffffffffffffffffffffffffff1916827bffffffffffffffffffffffffffffffffffffffffffffffffffffffff1916145b806107a457506107a382611522565b5b9050919050565b6060600080546107ba90613285565b80601f01602080910402602001604051908101604052809291908181526020018280546107e690613285565b80156108335780601f1061080857610100808354040283529160200191610833565b820191906000526020600020905b81548152906001019060200180831161081657829003601f168201915b5050505050905090565b60006108488261158c565b610887576040517f08c379a000000000000000000000000000000000000000000000000000000000815260040161087e90612eff565b60405180910390fd5b6004600083815260200190815260200160002060009054906101000a900473ffffffffffffffffffffffffffffffffffffffff169050919050565b60006108cd82610b0c565b90508073ffffffffffffffffffffffffffffffffffffffff168373ffffffffffffffffffffffffffffffffffffffff16141561093e576040517f08c379a000000000000000000000000000000000000000000000000000000000815260040161093590612f5f565b60405180910390fd5b8073ffffffffffffffffffffffffffffffffffffffff1661095d6115f8565b73ffffffffffffffffffffffffffffffffffffffff16148061098c575061098b816109866115f8565b6112e5565b5b6109cb576040517f08c379a00000000000000000000000000000000000000000000000000000000081526004016109c290612e7f565b60405180910390fd5b6109d58383611600565b505050565b60075481565b6109f16109eb6115f8565b826116b9565b610a30576040517f08c379a0000000000000000000000000000000000000000000000000000000008152600401610a2790612f9f565b60405180910390fd5b610a3b838383611797565b505050565b610a486115f8565b73ffffffffffffffffffffffffffffffffffffffff16610a66610d22565b73ffffffffffffffffffffffffffffffffffffffff1614610abc576040517f08c379a0000000000000000000000000000000000000000000000000000000008152600401610ab390612f3f565b60405180910390fd5b610ac5816119fe565b50565b610ae38383836040518060200160405280600081525061111e565b505050565b7f000000000000000000000000000000000000000000000000000000000000000081565b6000806002600084815260200190815260200160002060009054906101000a900473ffffffffffffffffffffffffffffffffffffffff169050600073ffffffffffffffffffffffffffffffffffffffff168173ffffffffffffffffffffffffffffffffffffffff161415610bb5576040517f08c379a0000000000000000000000000000000000000000000000000000000008152600401610bac90612ebf565b60405180910390fd5b80915050919050565b7f000000000000000000000000000000000000000000000000000000000000000081565b60008073ffffffffffffffffffffffffffffffffffffffff168273ffffffffffffffffffffffffffffffffffffffff161415610c53576040517f08c379a0000000000000000000000000000000000000000000000000000000008152600401610c4a90612e9f565b60405180910390fd5b600360008373ffffffffffffffffffffffffffffffffffffffff1673ffffffffffffffffffffffffffffffffffffffff168152602001908152602001600020549050919050565b610ca26115f8565b73ffffffffffffffffffffffffffffffffffffffff16610cc0610d22565b73ffffffffffffffffffffffffffffffffffffffff1614610d16576040517f08c379a0000000000000000000000000000000000000000000000000000000008152600401610d0d90612f3f565b60405180910390fd5b610d206000611a8c565b565b6000600660009054906101000a900473ffffffffffffffffffffffffffffffffffffffff16905090565b610d546115f8565b73ffffffffffffffffffffffffffffffffffffffff16610d72610d22565b73ffffffffffffffffffffffffffffffffffffffff1614610dc8576040517f08c379a0000000000000000000000000000000000000000000000000000000008152600401610dbf90612f3f565b60405180910390fd5b818160099190610dd992919061236f565b505050565b606060018054610ded90613285565b80601f0160208091040260200160405190810160405280929190818152602001828054610e1990613285565b8015610e665780601f10610e3b57610100808354040283529160200191610e66565b820191906000526020600020905b815481529060010190602001808311610e4957829003601f168201915b5050505050905090565b600860009054906101000a900460ff16610ebf576040517f08c379a0000000000000000000000000000000000000000000000000000000008152600401610eb690612f7f565b60405180910390fd5b7f000000000000000000000000000000000000000000000000000000000000000081610eeb919061312f565b3414610f2c576040517f08c379a0000000000000000000000000000000000000000000000000000000008152600401610f2390612d5f565b60405180910390fd5b7f000000000000000000000000000000000000000000000000000000000000000081600754610f5b91906130a8565b1115610f9c576040517f08c379a0000000000000000000000000000000000000000000000000000000008152600401610f9390612e5f565b60405180910390fd5b7f000000000000000000000000000000000000000000000000000000000000000081600a60003373ffffffffffffffffffffffffffffffffffffffff1673ffffffffffffffffffffffffffffffffffffffff1681526020019081526020016000205461100891906130a8565b1115611049576040517f08c379a000000000000000000000000000000000000000000000000000000000815260040161104090612f1f565b60405180910390fd5b80600a60003373ffffffffffffffffffffffffffffffffffffffff1673ffffffffffffffffffffffffffffffffffffffff168152602001908152602001600020600082825461109891906130a8565b925050819055506110b06110aa610d22565b34611b52565b60005b8181101561110457600060016007546110cc91906130a8565b9050600760008154809291906110e1906132e8565b91905055506110f03382611be2565b5080806110fc906132e8565b9150506110b3565b5050565b61111a6111136115f8565b8383611c00565b5050565b61112f6111296115f8565b836116b9565b61116e576040517f08c379a000000000000000000000000000000000000000000000000000000000815260040161116590612f9f565b60405180910390fd5b61117a84848484611d6d565b50505050565b606061118b8261158c565b6111ca576040517f08c379a00000000000000000000000000000000000000000000000000000000081526004016111c190612fbf565b60405180910390fd5b60096111d583611dc9565b6040516020016111e6929190612c53565b6040516020818303038152906040529050919050565b600860009054906101000a900460ff1681565b7f000000000000000000000000000000000000000000000000000000000000000081565b60007f000000000000000000000000000000000000000000000000000000000000000073ffffffffffffffffffffffffffffffffffffffff1663e3a9db1a836040518263ffffffff1660e01b815260040161128e9190612c77565b60206040518083038186803b1580156112a657600080fd5b505afa1580156112ba573d6000803e3d6000fd5b505050506040513d601f19601f820116820180604052508101906112de9190612810565b9050919050565b6000600560008473ffffffffffffffffffffffffffffffffffffffff1673ffffffffffffffffffffffffffffffffffffffff16815260200190815260200160002060008373ffffffffffffffffffffffffffffffffffffffff1673ffffffffffffffffffffffffffffffffffffffff16815260200190815260200160002060009054906101000a900460ff16905092915050565b600a6020528060005260406000206000915090505481565b6113996115f8565b73ffffffffffffffffffffffffffffffffffffffff166113b7610d22565b73ffffffffffffffffffffffffffffffffffffffff161461140d576040517f08c379a000000000000000000000000000000000000000000000000000000000815260040161140490612f3f565b60405180910390fd5b600073ffffffffffffffffffffffffffffffffffffffff168173ffffffffffffffffffffffffffffffffffffffff16141561147d576040517f08c379a000000000000000000000000000000000000000000000000000000000815260040161147490612d9f565b60405180910390fd5b61148681611a8c565b50565b6114916115f8565b73ffffffffffffffffffffffffffffffffffffffff166114af610d22565b73ffffffffffffffffffffffffffffffffffffffff1614611505576040517f08c379a00000000000000000000000000000000000000000000000000000000081526004016114fc90612f3f565b60405180910390fd5b80600860006101000a81548160ff02191690831515021790555050565b60007f01ffc9a7000000000000000000000000000000000000000000000000000000007bffffffffffffffffffffffffffffffffffffffffffffffffffffffff1916827bffffffffffffffffffffffffffffffffffffffffffffffffffffffff1916149050919050565b60008073ffffffffffffffffffffffffffffffffffffffff166002600084815260200190815260200160002060009054906101000a900473ffffffffffffffffffffffffffffffffffffffff1673ffffffffffffffffffffffffffffffffffffffff1614159050919050565b600033905090565b816004600083815260200190815260200160002060006101000a81548173ffffffffffffffffffffffffffffffffffffffff021916908373ffffffffffffffffffffffffffffffffffffffff160217905550808273ffffffffffffffffffffffffffffffffffffffff1661167383610b0c565b73ffffffffffffffffffffffffffffffffffffffff167f8c5be1e5ebec7d5bd14f71427d1e84f3dd0314c0f7b2291e5b200ac8c7c3b92560405160405180910390a45050565b60006116c48261158c565b611703576040517f08c379a00000000000000000000000000000000000000000000000000000000081526004016116fa90612e3f565b60405180910390fd5b600061170e83610b0c565b90508073ffffffffffffffffffffffffffffffffffffffff168473ffffffffffffffffffffffffffffffffffffffff161480611750575061174f81856112e5565b5b8061178e57508373ffffffffffffffffffffffffffffffffffffffff166117768461083d565b73ffffffffffffffffffffffffffffffffffffffff16145b91505092915050565b8273ffffffffffffffffffffffffffffffffffffffff166117b782610b0c565b73ffffffffffffffffffffffffffffffffffffffff161461180d576040517f08c379a000000000000000000000000000000000000000000000000000000000815260040161180490612dbf565b60405180910390fd5b600073ffffffffffffffffffffffffffffffffffffffff168273ffffffffffffffffffffffffffffffffffffffff16141561187d576040517f08c379a000000000000000000000000000000000000000000000000000000000815260040161187490612dff565b60405180910390fd5b611888838383611f76565b611893600082611600565b6001600360008573ffffffffffffffffffffffffffffffffffffffff1673ffffffffffffffffffffffffffffffffffffffff16815260200190815260200160002060008282546118e39190613189565b925050819055506001600360008473ffffffffffffffffffffffffffffffffffffffff1673ffffffffffffffffffffffffffffffffffffffff168152602001908152602001600020600082825461193a91906130a8565b92505081905550816002600083815260200190815260200160002060006101000a81548173ffffffffffffffffffffffffffffffffffffffff021916908373ffffffffffffffffffffffffffffffffffffffff160217905550808273ffffffffffffffffffffffffffffffffffffffff168473ffffffffffffffffffffffffffffffffffffffff167fddf252ad1be2c89b69c2b068fc378daa952ba7f163c4a11628f55a4df523b3ef60405160405180910390a46119f9838383611f7b565b505050565b7f000000000000000000000000000000000000000000000000000000000000000073ffffffffffffffffffffffffffffffffffffffff166351cff8d9826040518263ffffffff1660e01b8152600401611a579190612c92565b600060405180830381600087803b158015611a7157600080fd5b505af1158015611a85573d6000803e3d6000fd5b5050505050565b6000600660009054906101000a900473ffffffffffffffffffffffffffffffffffffffff16905081600660006101000a81548173ffffffffffffffffffffffffffffffffffffffff021916908373ffffffffffffffffffffffffffffffffffffffff1602179055508173ffffffffffffffffffffffffffffffffffffffff168173ffffffffffffffffffffffffffffffffffffffff167f8be0079c531659141344cd1fd0a4f28419497f9722a3daafe3b4186f6b6457e060405160405180910390a35050565b7f000000000000000000000000000000000000000000000000000000000000000073ffffffffffffffffffffffffffffffffffffffff1663f340fa0182846040518363ffffffff1660e01b8152600401611bac9190612c77565b6000604051808303818588803b158015611bc557600080fd5b505af1158015611bd9573d6000803e3d6000fd5b50505050505050565b611bfc828260405180602001604052806000815250611f80565b5050565b8173ffffffffffffffffffffffffffffffffffffffff168373ffffffffffffffffffffffffffffffffffffffff161415611c6f576040517f08c379a0000000000000000000000000000000000000000000000000000000008152600401611c6690612e1f565b60405180910390fd5b80600560008573ffffffffffffffffffffffffffffffffffffffff1673ffffffffffffffffffffffffffffffffffffffff16815260200190815260200160002060008473ffffffffffffffffffffffffffffffffffffffff1673ffffffffffffffffffffffffffffffffffffffff16815260200190815260200160002060006101000a81548160ff0219169083151502179055508173ffffffffffffffffffffffffffffffffffffffff168373ffffffffffffffffffffffffffffffffffffffff167f17307eab39ab6107e8899845ad3d59bd9653f200f220920489ca2b5937696c3183604051611d609190612d22565b60405180910390a3505050565b611d78848484611797565b611d8484848484611fdb565b611dc3576040517f08c379a0000000000000000000000000000000000000000000000000000000008152600401611dba90612d7f565b60405180910390fd5b50505050565b60606000821415611e11576040518060400160405280600181526020017f30000000000000000000000000000000000000000000000000000000000000008152509050611f71565b600082905060005b60008214611e43578080611e2c906132e8565b915050600a82611e3c91906130fe565b9150611e19565b60008167ffffffffffffffff811115611e85577f4e487b7100000000000000000000000000000000000000000000000000000000600052604160045260246000fd5b6040519080825280601f01601f191660200182016040528015611eb75781602001600182028036833780820191505090505b5090505b60008514611f6a57600182611ed09190613189565b9150600a85611edf9190613331565b6030611eeb91906130a8565b60f81b818381518110611f27577f4e487b7100000000000000000000000000000000000000000000000000000000600052603260045260246000fd5b60200101907effffffffffffffffffffffffffffffffffffffffffffffffffffffffffffff1916908160001a905350600a85611f6391906130fe565b9450611ebb565b8093505050505b919050565b505050565b505050565b611f8a8383612172565b611f976000848484611fdb565b611fd6576040517f08c379a0000000000000000000000000000000000000000000000000000000008152600401611fcd90612d7f565b60405180910390fd5b505050565b6000611ffc8473ffffffffffffffffffffffffffffffffffffffff1661234c565b15612165578373ffffffffffffffffffffffffffffffffffffffff1663150b7a026120256115f8565b8786866040518563ffffffff1660e01b81526004016120479493929190612cad565b602060405180830381600087803b15801561206157600080fd5b505af192505050801561209257506040513d601f19601f8201168201806040525081019061208f9190612779565b60015b612115573d80600081146120c2576040519150601f19603f3d011682016040523d82523d6000602084013e6120c7565b606091505b5060008151141561210d576040517f08c379a000000000000000000000000000000000000000000000000000000000815260040161210490612d7f565b60405180910390fd5b805181602001fd5b63150b7a0260e01b7bffffffffffffffffffffffffffffffffffffffffffffffffffffffff1916817bffffffffffffffffffffffffffffffffffffffffffffffffffffffff19161491505061216a565b600190505b949350505050565b600073ffffffffffffffffffffffffffffffffffffffff168273ffffffffffffffffffffffffffffffffffffffff1614156121e2576040517f08c379a00000000000000000000000000000000000000000000000000000000081526004016121d990612edf565b60405180910390fd5b6121eb8161158c565b1561222b576040517f08c379a000000000000000000000000000000000000000000000000000000000815260040161222290612ddf565b60405180910390fd5b61223760008383611f76565b6001600360008473ffffffffffffffffffffffffffffffffffffffff1673ffffffffffffffffffffffffffffffffffffffff168152602001908152602001600020600082825461228791906130a8565b92505081905550816002600083815260200190815260200160002060006101000a81548173ffffffffffffffffffffffffffffffffffffffff021916908373ffffffffffffffffffffffffffffffffffffffff160217905550808273ffffffffffffffffffffffffffffffffffffffff16600073ffffffffffffffffffffffffffffffffffffffff167fddf252ad1be2c89b69c2b068fc378daa952ba7f163c4a11628f55a4df523b3ef60405160405180910390a461234860008383611f7b565b5050565b6000808273ffffffffffffffffffffffffffffffffffffffff163b119050919050565b82805461237b90613285565b90600052602060002090601f01602090048101928261239d57600085556123e4565b82601f106123b657803560ff19168380011785556123e4565b828001600101855582156123e4579182015b828111156123e35782358255916020019190600101906123c8565b5b5090506123f191906123f5565b5090565b5b8082111561240e5760008160009055506001016123f6565b5090565b60006124256124208461301f565b612ffa565b90508281526020810184848401111561243d57600080fd5b612448848285613243565b509392505050565b60008135905061245f81613905565b92915050565b6000813590506124748161391c565b92915050565b60008135905061248981613933565b92915050565b60008135905061249e8161394a565b92915050565b6000815190506124b38161394a565b92915050565b600082601f8301126124ca57600080fd5b81356124da848260208601612412565b91505092915050565b60008083601f8401126124f557600080fd5b8235905067ffffffffffffffff81111561250e57600080fd5b60208301915083600182028301111561252657600080fd5b9250929050565b60008135905061253c81613961565b92915050565b60008151905061255181613961565b92915050565b60006020828403121561256957600080fd5b600061257784828501612450565b91505092915050565b60006020828403121561259257600080fd5b60006125a084828501612465565b91505092915050565b600080604083850312156125bc57600080fd5b60006125ca85828601612450565b92505060206125db85828601612450565b9150509250929050565b6000806000606084860312156125fa57600080fd5b600061260886828701612450565b935050602061261986828701612450565b925050604061262a8682870161252d565b9150509250925092565b6000806000806080858703121561264a57600080fd5b600061265887828801612450565b945050602061266987828801612450565b935050604061267a8782880161252d565b925050606085013567ffffffffffffffff81111561269757600080fd5b6126a3878288016124b9565b91505092959194509250565b600080604083850312156126c257600080fd5b60006126d085828601612450565b92505060206126e18582860161247a565b9150509250929050565b600080604083850312156126fe57600080fd5b600061270c85828601612450565b925050602061271d8582860161252d565b9150509250929050565b60006020828403121561273957600080fd5b60006127478482850161247a565b91505092915050565b60006020828403121561276257600080fd5b60006127708482850161248f565b91505092915050565b60006020828403121561278b57600080fd5b6000612799848285016124a4565b91505092915050565b600080602083850312156127b557600080fd5b600083013567ffffffffffffffff8111156127cf57600080fd5b6127db858286016124e3565b92509250509250929050565b6000602082840312156127f957600080fd5b60006128078482850161252d565b91505092915050565b60006020828403121561282257600080fd5b600061283084828501612542565b91505092915050565b612842816131cf565b82525050565b612851816131bd565b82525050565b612860816131e1565b82525050565b600061287182613065565b61287b818561307b565b935061288b818560208601613252565b6128948161341e565b840191505092915050565b60006128aa82613070565b6128b4818561308c565b93506128c4818560208601613252565b6128cd8161341e565b840191505092915050565b60006128e382613070565b6128ed818561309d565b93506128fd818560208601613252565b80840191505092915050565b6000815461291681613285565b612920818661309d565b9450600182166000811461293b576001811461294c5761297f565b60ff1983168652818601935061297f565b61295585613050565b60005b8381101561297757815481890152600182019150602081019050612958565b838801955050505b50505092915050565b600061299560108361308c565b91506129a08261342f565b602082019050919050565b60006129b860328361308c565b91506129c382613458565b604082019050919050565b60006129db60268361308c565b91506129e6826134a7565b604082019050919050565b60006129fe60258361308c565b9150612a09826134f6565b604082019050919050565b6000612a21601c8361308c565b9150612a2c82613545565b602082019050919050565b6000612a4460248361308c565b9150612a4f8261356e565b604082019050919050565b6000612a6760198361308c565b9150612a72826135bd565b602082019050919050565b6000612a8a602c8361308c565b9150612a95826135e6565b604082019050919050565b6000612aad60088361308c565b9150612ab882613635565b602082019050919050565b6000612ad060388361308c565b9150612adb8261365e565b604082019050919050565b6000612af3602a8361308c565b9150612afe826136ad565b604082019050919050565b6000612b1660298361308c565b9150612b21826136fc565b604082019050919050565b6000612b3960208361308c565b9150612b448261374b565b602082019050919050565b6000612b5c602c8361308c565b9150612b6782613774565b604082019050919050565b6000612b7f60118361308c565b9150612b8a826137c3565b602082019050919050565b6000612ba260208361308c565b9150612bad826137ec565b602082019050919050565b6000612bc560218361308c565b9150612bd082613815565b604082019050919050565b6000612be860148361308c565b9150612bf382613864565b602082019050919050565b6000612c0b60318361308c565b9150612c168261388d565b604082019050919050565b6000612c2e60158361308c565b9150612c39826138dc565b602082019050919050565b612c4d81613239565b82525050565b6000612c5f8285612909565b9150612c6b82846128d8565b91508190509392505050565b6000602082019050612c8c6000830184612848565b92915050565b6000602082019050612ca76000830184612839565b92915050565b6000608082019050612cc26000830187612848565b612ccf6020830186612848565b612cdc6040830185612c44565b8181036060830152612cee8184612866565b905095945050505050565b6000604082019050612d0e6000830185612848565b612d1b6020830184612c44565b9392505050565b6000602082019050612d376000830184612857565b92915050565b60006020820190508181036000830152612d57818461289f565b905092915050565b60006020820190508181036000830152612d7881612988565b9050919050565b60006020820190508181036000830152612d98816129ab565b9050919050565b60006020820190508181036000830152612db8816129ce565b9050919050565b60006020820190508181036000830152612dd8816129f1565b9050919050565b60006020820190508181036000830152612df881612a14565b9050919050565b60006020820190508181036000830152612e1881612a37565b9050919050565b60006020820190508181036000830152612e3881612a5a565b9050919050565b60006020820190508181036000830152612e5881612a7d565b9050919050565b60006020820190508181036000830152612e7881612aa0565b9050919050565b60006020820190508181036000830152612e9881612ac3565b9050919050565b60006020820190508181036000830152612eb881612ae6565b9050919050565b60006020820190508181036000830152612ed881612b09565b9050919050565b60006020820190508181036000830152612ef881612b2c565b9050919050565b60006020820190508181036000830152612f1881612b4f565b9050919050565b60006020820190508181036000830152612f3881612b72565b9050919050565b60006020820190508181036000830152612f5881612b95565b9050919050565b60006020820190508181036000830152612f7881612bb8565b9050919050565b60006020820190508181036000830152612f9881612bdb565b9050919050565b60006020820190508181036000830152612fb881612bfe565b9050919050565b60006020820190508181036000830152612fd881612c21565b9050919050565b6000602082019050612ff46000830184612c44565b92915050565b6000613004613015565b905061301082826132b7565b919050565b6000604051905090565b600067ffffffffffffffff82111561303a576130396133ef565b5b6130438261341e565b9050602081019050919050565b60008190508160005260206000209050919050565b600081519050919050565b600081519050919050565b600082825260208201905092915050565b600082825260208201905092915050565b600081905092915050565b60006130b382613239565b91506130be83613239565b9250827fffffffffffffffffffffffffffffffffffffffffffffffffffffffffffffffff038211156130f3576130f2613362565b5b828201905092915050565b600061310982613239565b915061311483613239565b92508261312457613123613391565b5b828204905092915050565b600061313a82613239565b915061314583613239565b9250817fffffffffffffffffffffffffffffffffffffffffffffffffffffffffffffffff048311821515161561317e5761317d613362565b5b828202905092915050565b600061319482613239565b915061319f83613239565b9250828210156131b2576131b1613362565b5b828203905092915050565b60006131c882613219565b9050919050565b60006131da82613219565b9050919050565b60008115159050919050565b60007fffffffff0000000000000000000000000000000000000000000000000000000082169050919050565b600073ffffffffffffffffffffffffffffffffffffffff82169050919050565b6000819050919050565b82818337600083830152505050565b60005b83811015613270578082015181840152602081019050613255565b8381111561327f576000848401525b50505050565b6000600282049050600182168061329d57607f821691505b602082108114156132b1576132b06133c0565b5b50919050565b6132c08261341e565b810181811067ffffffffffffffff821117156132df576132de6133ef565b5b80604052505050565b60006132f382613239565b91507fffffffffffffffffffffffffffffffffffffffffffffffffffffffffffffffff82141561332657613325613362565b5b600182019050919050565b600061333c82613239565b915061334783613239565b92508261335757613356613391565b5b828206905092915050565b7f4e487b7100000000000000000000000000000000000000000000000000000000600052601160045260246000fd5b7f4e487b7100000000000000000000000000000000000000000000000000000000600052601260045260246000fd5b7f4e487b7100000000000000000000000000000000000000000000000000000000600052602260045260246000fd5b7f4e487b7100000000000000000000000000000000000000000000000000000000600052604160045260246000fd5b6000601f19601f8301169050919050565b7f77726f6e67206d696e742076616c756500000000000000000000000000000000600082015250565b7f4552433732313a207472616e7366657220746f206e6f6e20455243373231526560008201527f63656976657220696d706c656d656e7465720000000000000000000000000000602082015250565b7f4f776e61626c653a206e6577206f776e657220697320746865207a65726f206160008201527f6464726573730000000000000000000000000000000000000000000000000000602082015250565b7f4552433732313a207472616e736665722066726f6d20696e636f72726563742060008201527f6f776e6572000000000000000000000000000000000000000000000000000000602082015250565b7f4552433732313a20746f6b656e20616c7265616479206d696e74656400000000600082015250565b7f4552433732313a207472616e7366657220746f20746865207a65726f2061646460008201527f7265737300000000000000000000000000000000000000000000000000000000602082015250565b7f4552433732313a20617070726f766520746f2063616c6c657200000000000000600082015250565b7f4552433732313a206f70657261746f7220717565727920666f72206e6f6e657860008201527f697374656e7420746f6b656e0000000000000000000000000000000000000000602082015250565b7f736f6c64206f7574000000000000000000000000000000000000000000000000600082015250565b7f4552433732313a20617070726f76652063616c6c6572206973206e6f74206f7760008201527f6e6572206e6f7220617070726f76656420666f7220616c6c0000000000000000602082015250565b7f4552433732313a2062616c616e636520717565727920666f7220746865207a6560008201527f726f206164647265737300000000000000000000000000000000000000000000602082015250565b7f4552433732313a206f776e657220717565727920666f72206e6f6e657869737460008201527f656e7420746f6b656e0000000000000000000000000000000000000000000000602082015250565b7f4552433732313a206d696e7420746f20746865207a65726f2061646472657373600082015250565b7f4552433732313a20617070726f76656420717565727920666f72206e6f6e657860008201527f697374656e7420746f6b656e0000000000000000000000000000000000000000602082015250565b7f657863656564206d61782077616c6c6574000000000000000000000000000000600082015250565b7f4f776e61626c653a2063616c6c6572206973206e6f7420746865206f776e6572600082015250565b7f4552433732313a20617070726f76616c20746f2063757272656e74206f776e6560008201527f7200000000000000000000000000000000000000000000000000000000000000602082015250565b7f4d696e74696e67206e6f7420656e61626c65642e000000000000000000000000600082015250565b7f4552433732313a207472616e736665722063616c6c6572206973206e6f74206f60008201527f776e6572206e6f7220617070726f766564000000000000000000000000000000602082015250565b7f546f6b656e20646f6573206e6f74206578697374210000000000000000000000600082015250565b61390e816131bd565b811461391957600080fd5b50565b613925816131cf565b811461393057600080fd5b50565b61393c816131e1565b811461394757600080fd5b50565b613953816131ed565b811461395e57600080fd5b50565b61396a81613239565b811461397557600080fd5b5056fea26469706673582212202516d794cb6ea3ad516b59c199c3920323d57d4ea83c96388248d56af3a1ba5a64736f6c63430008040033608060405234801561001057600080fd5b5061002d61002261003260201b60201c565b61003a60201b60201c565b6100fe565b600033905090565b60008060009054906101000a900473ffffffffffffffffffffffffffffffffffffffff169050816000806101000a81548173ffffffffffffffffffffffffffffffffffffffff021916908373ffffffffffffffffffffffffffffffffffffffff1602179055508173ffffffffffffffffffffffffffffffffffffffff168173ffffffffffffffffffffffffffffffffffffffff167f8be0079c531659141344cd1fd0a4f28419497f9722a3daafe3b4186f6b6457e060405160405180910390a35050565b610bfc8061010d6000396000f3fe6080604052600436106100555760003560e01c806351cff8d91461005a578063715018a6146100835780638da5cb5b1461009a578063e3a9db1a146100c5578063f2fde38b14610102578063f340fa011461012b575b600080fd5b34801561006657600080fd5b50610081600480360381019061007c91906107f5565b610147565b005b34801561008f57600080fd5b506100986102c7565b005b3480156100a657600080fd5b506100af61034f565b6040516100bc9190610900565b60405180910390f35b3480156100d157600080fd5b506100ec60048036038101906100e791906107cc565b610378565b6040516100f9919061099b565b60405180910390f35b34801561010e57600080fd5b50610129600480360381019061012491906107cc565b6103c1565b005b610145600480360381019061014091906107cc565b6104b9565b005b61014f6105e2565b73ffffffffffffffffffffffffffffffffffffffff1661016d61034f565b73ffffffffffffffffffffffffffffffffffffffff16146101c3576040517f08c379a00000000000000000000000000000000000000000000000000000000081526004016101ba9061097b565b60405180910390fd5b6000600160008373ffffffffffffffffffffffffffffffffffffffff1673ffffffffffffffffffffffffffffffffffffffff1681526020019081526020016000205490506000600160008473ffffffffffffffffffffffffffffffffffffffff1673ffffffffffffffffffffffffffffffffffffffff16815260200190815260200160002081905550610275818373ffffffffffffffffffffffffffffffffffffffff166105ea90919063ffffffff16565b8173ffffffffffffffffffffffffffffffffffffffff167f7084f5476618d8e60b11ef0d7d3f06914655adb8793e28ff7f018d4c76d505d5826040516102bb919061099b565b60405180910390a25050565b6102cf6105e2565b73ffffffffffffffffffffffffffffffffffffffff166102ed61034f565b73ffffffffffffffffffffffffffffffffffffffff1614610343576040517f08c379a000000000000000000000000000000000000000000000000000000000815260040161033a9061097b565b60405180910390fd5b61034d60006106de565b565b60008060009054906101000a900473ffffffffffffffffffffffffffffffffffffffff16905090565b6000600160008373ffffffffffffffffffffffffffffffffffffffff1673ffffffffffffffffffffffffffffffffffffffff168152602001908152602001600020549050919050565b6103c96105e2565b73ffffffffffffffffffffffffffffffffffffffff166103e761034f565b73ffffffffffffffffffffffffffffffffffffffff161461043d576040517f08c379a00000000000000000000000000000000000000000000000000000000081526004016104349061097b565b60405180910390fd5b600073ffffffffffffffffffffffffffffffffffffffff168173ffffffffffffffffffffffffffffffffffffffff1614156104ad576040517f08c379a00000000000000000000000000000000000000000000000000000000081526004016104a49061091b565b60405180910390fd5b6104b6816106de565b50565b6104c16105e2565b73ffffffffffffffffffffffffffffffffffffffff166104df61034f565b73ffffffffffffffffffffffffffffffffffffffff1614610535576040517f08c379a000000000000000000000000000000000000000000000000000000000815260040161052c9061097b565b60405180910390fd5b600034905080600160008473ffffffffffffffffffffffffffffffffffffffff1673ffffffffffffffffffffffffffffffffffffffff168152602001908152602001600020600082825461058991906109d2565b925050819055508173ffffffffffffffffffffffffffffffffffffffff167f2da466a7b24304f47e87fa2e1e5a81b9831ce54fec19055ce277ca2f39ba42c4826040516105d6919061099b565b60405180910390a25050565b600033905090565b8047101561062d576040517f08c379a00000000000000000000000000000000000000000000000000000000081526004016106249061095b565b60405180910390fd5b60008273ffffffffffffffffffffffffffffffffffffffff1682604051610653906108eb565b60006040518083038185875af1925050503d8060008114610690576040519150601f19603f3d011682016040523d82523d6000602084013e610695565b606091505b50509050806106d9576040517f08c379a00000000000000000000000000000000000000000000000000000000081526004016106d09061093b565b60405180910390fd5b505050565b60008060009054906101000a900473ffffffffffffffffffffffffffffffffffffffff169050816000806101000a81548173ffffffffffffffffffffffffffffffffffffffff021916908373ffffffffffffffffffffffffffffffffffffffff1602179055508173ffffffffffffffffffffffffffffffffffffffff168173ffffffffffffffffffffffffffffffffffffffff167f8be0079c531659141344cd1fd0a4f28419497f9722a3daafe3b4186f6b6457e060405160405180910390a35050565b6000813590506107b181610b98565b92915050565b6000813590506107c681610baf565b92915050565b6000602082840312156107de57600080fd5b60006107ec848285016107a2565b91505092915050565b60006020828403121561080757600080fd5b6000610815848285016107b7565b91505092915050565b61082781610a28565b82525050565b600061083a6026836109c1565b915061084582610aa5565b604082019050919050565b600061085d603a836109c1565b915061086882610af4565b604082019050919050565b6000610880601d836109c1565b915061088b82610b43565b602082019050919050565b60006108a36020836109c1565b91506108ae82610b6c565b602082019050919050565b60006108c66000836109b6565b91506108d182610b95565b600082019050919050565b6108e581610a6c565b82525050565b60006108f6826108b9565b9150819050919050565b6000602082019050610915600083018461081e565b92915050565b600060208201905081810360008301526109348161082d565b9050919050565b6000602082019050818103600083015261095481610850565b9050919050565b6000602082019050818103600083015261097481610873565b9050919050565b6000602082019050818103600083015261099481610896565b9050919050565b60006020820190506109b060008301846108dc565b92915050565b600081905092915050565b600082825260208201905092915050565b60006109dd82610a6c565b91506109e883610a6c565b9250827fffffffffffffffffffffffffffffffffffffffffffffffffffffffffffffffff03821115610a1d57610a1c610a76565b5b828201905092915050565b6000610a3382610a4c565b9050919050565b6000610a4582610a4c565b9050919050565b600073ffffffffffffffffffffffffffffffffffffffff82169050919050565b6000819050919050565b7f4e487b7100000000000000000000000000000000000000000000000000000000600052601160045260246000fd5b7f4f776e61626c653a206e6577206f776e657220697320746865207a65726f206160008201527f6464726573730000000000000000000000000000000000000000000000000000602082015250565b7f416464726573733a20756e61626c6520746f2073656e642076616c75652c207260008201527f6563697069656e74206d61792068617665207265766572746564000000000000602082015250565b7f416464726573733a20696e73756666696369656e742062616c616e6365000000600082015250565b7f4f776e61626c653a2063616c6c6572206973206e6f7420746865206f776e6572600082015250565b50565b610ba181610a28565b8114610bac57600080fd5b50565b610bb881610a3a565b8114610bc357600080fd5b5056fea2646970667358221220b2a6db4c00e57e7ef608d5e81a53c60e6688cd2b85172cc39bb6858c6c6988ec64736f6c63430008040033",
    "linkReferences": {},
    "deployedLinkReferences": {}
}