{
    "_format": "hh-sol-artifact-1",
    "contractName": "RobocopPoster",
    "sourceName": "contracts/RobocopPoster.sol",
    "abi": [
        {
            "inputs": [],
            "stateMutability": "payable",
            "type": "constructor"
        },
        {
            "anonymous": false,
            "inputs": [
                {
                    "indexed": true,
                    "internalType": "address",
                    "name": "owner",
                    "type": "address"
                },
                {
                    "indexed": true,
                    "internalType": "address",
                    "name": "approved",
                    "type": "address"
                },
                {
                    "indexed": true,
                    "internalType": "uint256",
                    "name": "tokenId",
                    "type": "uint256"
                }
            ],
            "name": "Approval",
            "type": "event"
        },
        {
            "anonymous": false,
            "inputs": [
                {
                    "indexed": true,
                    "internalType": "address",
                    "name": "owner",
                    "type": "address"
                },
                {
                    "indexed": true,
                    "internalType": "address",
                    "name": "operator",
                    "type": "address"
                },
                {
                    "indexed": false,
                    "internalType": "bool",
                    "name": "approved",
                    "type": "bool"
                }
            ],
            "name": "ApprovalForAll",
            "type": "event"
        },
        {
            "anonymous": false,
            "inputs": [
                {
                    "indexed": true,
                    "internalType": "address",
                    "name": "previousOwner",
                    "type": "address"
                },
                {
                    "indexed": true,
                    "internalType": "address",
                    "name": "newOwner",
                    "type": "address"
                }
            ],
            "name": "OwnershipTransferred",
            "type": "event"
        },
        {
            "anonymous": false,
            "inputs": [
                {
                    "indexed": false,
                    "internalType": "address",
                    "name": "",
                    "type": "address"
                },
                {
                    "indexed": false,
                    "internalType": "uint256",
                    "name": "",
                    "type": "uint256"
                }
            ],
            "name": "Received",
            "type": "event"
        },
        {
            "anonymous": false,
            "inputs": [
                {
                    "indexed": true,
                    "internalType": "address",
                    "name": "from",
                    "type": "address"
                },
                {
                    "indexed": true,
                    "internalType": "address",
                    "name": "to",
                    "type": "address"
                },
                {
                    "indexed": true,
                    "internalType": "uint256",
                    "name": "tokenId",
                    "type": "uint256"
                }
            ],
            "name": "Transfer",
            "type": "event"
        },
        {
            "inputs": [
                {
                    "internalType": "address",
                    "name": "to",
                    "type": "address"
                },
                {
                    "internalType": "uint256",
                    "name": "tokenId",
                    "type": "uint256"
                }
            ],
            "name": "approve",
            "outputs": [],
            "stateMutability": "nonpayable",
            "type": "function"
        },
        {
            "inputs": [
                {
                    "internalType": "address",
                    "name": "owner",
                    "type": "address"
                }
            ],
            "name": "balanceOf",
            "outputs": [
                {
                    "internalType": "uint256",
                    "name": "",
                    "type": "uint256"
                }
            ],
            "stateMutability": "view",
            "type": "function"
        },
        {
            "inputs": [
                {
                    "internalType": "uint256",
                    "name": "tokenId",
                    "type": "uint256"
                }
            ],
            "name": "getApproved",
            "outputs": [
                {
                    "internalType": "address",
                    "name": "",
                    "type": "address"
                }
            ],
            "stateMutability": "view",
            "type": "function"
        },
        {
            "inputs": [
                {
                    "internalType": "address",
                    "name": "owner",
                    "type": "address"
                },
                {
                    "internalType": "address",
                    "name": "operator",
                    "type": "address"
                }
            ],
            "name": "isApprovedForAll",
            "outputs": [
                {
                    "internalType": "bool",
                    "name": "",
                    "type": "bool"
                }
            ],
            "stateMutability": "view",
            "type": "function"
        },
        {
            "inputs": [],
            "name": "maxPerWallet",
            "outputs": [
                {
                    "internalType": "uint256",
                    "name": "",
                    "type": "uint256"
                }
            ],
            "stateMutability": "view",
            "type": "function"
        },
        {
            "inputs": [],
            "name": "maxSupply",
            "outputs": [
                {
                    "internalType": "uint256",
                    "name": "",
                    "type": "uint256"
                }
            ],
            "stateMutability": "view",
            "type": "function"
        },
        {
            "inputs": [
                {
                    "internalType": "uint256",
                    "name": "quantity_",
                    "type": "uint256"
                }
            ],
            "name": "mint",
            "outputs": [],
            "stateMutability": "payable",
            "type": "function"
        },
        {
            "inputs": [],
            "name": "mintEnabled",
            "outputs": [
                {
                    "internalType": "bool",
                    "name": "",
                    "type": "bool"
                }
            ],
            "stateMutability": "view",
            "type": "function"
        },
        {
            "inputs": [],
            "name": "mintPrice",
            "outputs": [
                {
                    "internalType": "uint256",
                    "name": "",
                    "type": "uint256"
                }
            ],
            "stateMutability": "view",
            "type": "function"
        },
        {
            "inputs": [],
            "name": "name",
            "outputs": [
                {
                    "internalType": "string",
                    "name": "",
                    "type": "string"
                }
            ],
            "stateMutability": "view",
            "type": "function"
        },
        {
            "inputs": [],
            "name": "owner",
            "outputs": [
                {
                    "internalType": "address",
                    "name": "",
                    "type": "address"
                }
            ],
            "stateMutability": "view",
            "type": "function"
        },
        {
            "inputs": [
                {
                    "internalType": "uint256",
                    "name": "tokenId",
                    "type": "uint256"
                }
            ],
            "name": "ownerOf",
            "outputs": [
                {
                    "internalType": "address",
                    "name": "",
                    "type": "address"
                }
            ],
            "stateMutability": "view",
            "type": "function"
        },
        {
            "inputs": [
                {
                    "internalType": "address",
                    "name": "dest",
                    "type": "address"
                }
            ],
            "name": "payments",
            "outputs": [
                {
                    "internalType": "uint256",
                    "name": "",
                    "type": "uint256"
                }
            ],
            "stateMutability": "view",
            "type": "function"
        },
        {
            "inputs": [],
            "name": "renounceOwnership",
            "outputs": [],
            "stateMutability": "nonpayable",
            "type": "function"
        },
        {
            "inputs": [
                {
                    "internalType": "address",
                    "name": "from",
                    "type": "address"
                },
                {
                    "internalType": "address",
                    "name": "to",
                    "type": "address"
                },
                {
                    "internalType": "uint256",
                    "name": "tokenId",
                    "type": "uint256"
                }
            ],
            "name": "safeTransferFrom",
            "outputs": [],
            "stateMutability": "nonpayable",
            "type": "function"
        },
        {
            "inputs": [
                {
                    "internalType": "address",
                    "name": "from",
                    "type": "address"
                },
                {
                    "internalType": "address",
                    "name": "to",
                    "type": "address"
                },
                {
                    "internalType": "uint256",
                    "name": "tokenId",
                    "type": "uint256"
                },
                {
                    "internalType": "bytes",
                    "name": "_data",
                    "type": "bytes"
                }
            ],
            "name": "safeTransferFrom",
            "outputs": [],
            "stateMutability": "nonpayable",
            "type": "function"
        },
        {
            "inputs": [
                {
                    "internalType": "address",
                    "name": "operator",
                    "type": "address"
                },
                {
                    "internalType": "bool",
                    "name": "approved",
                    "type": "bool"
                }
            ],
            "name": "setApprovalForAll",
            "outputs": [],
            "stateMutability": "nonpayable",
            "type": "function"
        },
        {
            "inputs": [
                {
                    "internalType": "string",
                    "name": "baseTokenUri_",
                    "type": "string"
                }
            ],
            "name": "setBaseTokenUri",
            "outputs": [],
            "stateMutability": "nonpayable",
            "type": "function"
        },
        {
            "inputs": [
                {
                    "internalType": "bool",
                    "name": "mintEnabled_",
                    "type": "bool"
                }
            ],
            "name": "setMintEnabled",
            "outputs": [],
            "stateMutability": "nonpayable",
            "type": "function"
        },
        {
            "inputs": [
                {
                    "internalType": "bytes4",
                    "name": "interfaceId",
                    "type": "bytes4"
                }
            ],
            "name": "supportsInterface",
            "outputs": [
                {
                    "internalType": "bool",
                    "name": "",
                    "type": "bool"
                }
            ],
            "stateMutability": "view",
            "type": "function"
        },
        {
            "inputs": [],
            "name": "symbol",
            "outputs": [
                {
                    "internalType": "string",
                    "name": "",
                    "type": "string"
                }
            ],
            "stateMutability": "view",
            "type": "function"
        },
        {
            "inputs": [
                {
                    "internalType": "uint256",
                    "name": "tokenId",
                    "type": "uint256"
                }
            ],
            "name": "tokenURI",
            "outputs": [
                {
                    "internalType": "string",
                    "name": "",
                    "type": "string"
                }
            ],
            "stateMutability": "view",
            "type": "function"
        },
        {
            "inputs": [
                {
                    "internalType": "uint256",
                    "name": "tokenId_",
                    "type": "uint256"
                }
            ],
            "name": "tokenUri",
            "outputs": [
                {
                    "internalType": "string",
                    "name": "",
                    "type": "string"
                }
            ],
            "stateMutability": "view",
            "type": "function"
        },
        {
            "inputs": [],
            "name": "totalSupply",
            "outputs": [
                {
                    "internalType": "uint256",
                    "name": "",
                    "type": "uint256"
                }
            ],
            "stateMutability": "view",
            "type": "function"
        },
        {
            "inputs": [
                {
                    "internalType": "address",
                    "name": "from",
                    "type": "address"
                },
                {
                    "internalType": "address",
                    "name": "to",
                    "type": "address"
                },
                {
                    "internalType": "uint256",
                    "name": "tokenId",
                    "type": "uint256"
                }
            ],
            "name": "transferFrom",
            "outputs": [],
            "stateMutability": "nonpayable",
            "type": "function"
        },
        {
            "inputs": [
                {
                    "internalType": "address",
                    "name": "newOwner",
                    "type": "address"
                }
            ],
            "name": "transferOwnership",
            "outputs": [],
            "stateMutability": "nonpayable",
            "type": "function"
        },
        {
            "inputs": [
                {
                    "internalType": "address",
                    "name": "",
                    "type": "address"
                }
            ],
            "name": "walletMints",
            "outputs": [
                {
                    "internalType": "uint256",
                    "name": "",
                    "type": "uint256"
                }
            ],
            "stateMutability": "view",
            "type": "function"
        },
        {
            "inputs": [
                {
                    "internalType": "address payable",
                    "name": "payee",
                    "type": "address"
                }
            ],
            "name": "withdrawPayments",
            "outputs": [],
            "stateMutability": "nonpayable",
            "type": "function"
        },
        {
            "stateMutability": "payable",
            "type": "receive"
        }
    ],
    "bytecode": "0x6101006040526040518060400160405280600d81526020017f526f626f636f70506f73746572000000000000000000000000000000000000008152506040518060400160405280600281526020017f525000000000000000000000000000000000000000000000000000000000000081525081600090805190602001906200008992919062000226565b508060019080519060200190620000a292919062000226565b505050620000c5620000b96200015860201b60201c565b6200016060201b60201c565b604051620000d390620002b7565b604051809103906000f080158015620000f0573d6000803e3d6000fd5b5073ffffffffffffffffffffffffffffffffffffffff1660808173ffffffffffffffffffffffffffffffffffffffff1660601b81525050670de0b6b3a764000060a0818152505060006007819055506103e860c08181525050600360e0818152505062000349565b600033905090565b6000600660009054906101000a900473ffffffffffffffffffffffffffffffffffffffff16905081600660006101000a81548173ffffffffffffffffffffffffffffffffffffffff021916908373ffffffffffffffffffffffffffffffffffffffff1602179055508173ffffffffffffffffffffffffffffffffffffffff168173ffffffffffffffffffffffffffffffffffffffff167f8be0079c531659141344cd1fd0a4f28419497f9722a3daafe3b4186f6b6457e060405160405180910390a35050565b8280546200023490620002e4565b90600052602060002090601f016020900481019282620002585760008555620002a4565b82601f106200027357805160ff1916838001178555620002a4565b82800160010185558215620002a4579182015b82811115620002a357825182559160200191906001019062000286565b5b509050620002b39190620002c5565b5090565b610d098062003f7a83390190565b5b80821115620002e0576000816000905550600101620002c6565b5090565b60006002820490506001821680620002fd57607f821691505b602082108114156200031457620003136200031a565b5b50919050565b7f4e487b7100000000000000000000000000000000000000000000000000000000600052602260045260246000fd5b60805160601c60a05160c05160e051613bd1620003a960003960008181610bbe01526110720152600081816110020152611310015260008181610c940152610f9501526000818161133601528181611cac0152611e000152613bd16000f3fe6080604052600436106101bb5760003560e01c80638da5cb5b116100ec578063d12397301161008a578063e985e9c511610064578063e985e9c514610655578063f0293fd314610692578063f2fde38b146106cf578063f46a04eb146106f8576101fb565b8063d1239730146105c2578063d5abeb01146105ed578063e2982c2114610618576101fb565b8063a0712d68116100c6578063a0712d6814610517578063a22cb46514610533578063b88d4fde1461055c578063c87b56dd14610585576101fb565b80638da5cb5b1461049857806395652cfa146104c357806395d89b41146104ec576101fb565b806331b3eb94116101595780636352211e116101335780636352211e146103dc5780636817c76c1461041957806370a0823114610444578063715018a614610481576101fb565b806331b3eb941461035f57806342842e0e14610388578063453c2310146103b1576101fb565b8063095ea7b311610195578063095ea7b3146102a55780631675f455146102ce57806318160ddd1461030b57806323b872dd14610336576101fb565b806301ffc9a71461020057806306fdde031461023d578063081812fc14610268576101fb565b366101fb577f88a5966d370b9919b20f3e2c13ff65706f196a4e32cc2c12bf57088f8852587433346040516101f1929190612e84565b60405180910390a1005b600080fd5b34801561020c57600080fd5b5061022760048036038101906102229190612866565b610721565b6040516102349190612ead565b60405180910390f35b34801561024957600080fd5b50610252610803565b60405161025f9190612ec8565b60405180910390f35b34801561027457600080fd5b5061028f600480360381019061028a91906128fd565b610895565b60405161029c9190612e02565b60405180910390f35b3480156102b157600080fd5b506102cc60048036038101906102c79190612801565b61091a565b005b3480156102da57600080fd5b506102f560048036038101906102f091906128fd565b610a32565b6040516103029190612ec8565b60405180910390f35b34801561031757600080fd5b50610320610aae565b60405161032d919061318a565b60405180910390f35b34801561034257600080fd5b5061035d600480360381019061035891906126fb565b610ab4565b005b34801561036b57600080fd5b5061038660048036038101906103819190612696565b610b14565b005b34801561039457600080fd5b506103af60048036038101906103aa91906126fb565b610b9c565b005b3480156103bd57600080fd5b506103c6610bbc565b6040516103d3919061318a565b60405180910390f35b3480156103e857600080fd5b5061040360048036038101906103fe91906128fd565b610be0565b6040516104109190612e02565b60405180910390f35b34801561042557600080fd5b5061042e610c92565b60405161043b919061318a565b60405180910390f35b34801561045057600080fd5b5061046b6004803603810190610466919061266d565b610cb6565b604051610478919061318a565b60405180910390f35b34801561048d57600080fd5b50610496610d6e565b005b3480156104a457600080fd5b506104ad610df6565b6040516104ba9190612e02565b60405180910390f35b3480156104cf57600080fd5b506104ea60048036038101906104e591906128b8565b610e20565b005b3480156104f857600080fd5b50610501610eb2565b60405161050e9190612ec8565b60405180910390f35b610531600480360381019061052c91906128fd565b610f44565b005b34801561053f57600080fd5b5061055a600480360381019061055591906127c5565b6111dc565b005b34801561056857600080fd5b50610583600480360381019061057e919061274a565b6111f2565b005b34801561059157600080fd5b506105ac60048036038101906105a791906128fd565b611254565b6040516105b99190612ec8565b60405180910390f35b3480156105ce57600080fd5b506105d76112fb565b6040516105e49190612ead565b60405180910390f35b3480156105f957600080fd5b5061060261130e565b60405161060f919061318a565b60405180910390f35b34801561062457600080fd5b5061063f600480360381019061063a919061266d565b611332565b60405161064c919061318a565b60405180910390f35b34801561066157600080fd5b5061067c600480360381019061067791906126bf565b6113e4565b6040516106899190612ead565b60405180910390f35b34801561069e57600080fd5b506106b960048036038101906106b4919061266d565b611478565b6040516106c6919061318a565b60405180910390f35b3480156106db57600080fd5b506106f660048036038101906106f1919061266d565b611490565b005b34801561070457600080fd5b5061071f600480360381019061071a919061283d565b611588565b005b60007f80ac58cd000000000000000000000000000000000000000000000000000000007bffffffffffffffffffffffffffffffffffffffffffffffffffffffff1916827bffffffffffffffffffffffffffffffffffffffffffffffffffffffff191614806107ec57507f5b5e139f000000000000000000000000000000000000000000000000000000007bffffffffffffffffffffffffffffffffffffffffffffffffffffffff1916827bffffffffffffffffffffffffffffffffffffffffffffffffffffffff1916145b806107fc57506107fb82611621565b5b9050919050565b60606000805461081290613430565b80601f016020809104026020016040519081016040528092919081815260200182805461083e90613430565b801561088b5780601f106108605761010080835404028352916020019161088b565b820191906000526020600020905b81548152906001019060200180831161086e57829003601f168201915b5050505050905090565b60006108a08261168b565b6108df576040517f08c379a00000000000000000000000000000000000000000000000000000000081526004016108d6906130aa565b60405180910390fd5b6004600083815260200190815260200160002060009054906101000a900473ffffffffffffffffffffffffffffffffffffffff169050919050565b600061092582610be0565b90508073ffffffffffffffffffffffffffffffffffffffff168373ffffffffffffffffffffffffffffffffffffffff161415610996576040517f08c379a000000000000000000000000000000000000000000000000000000000815260040161098d9061312a565b60405180910390fd5b8073ffffffffffffffffffffffffffffffffffffffff166109b56116f7565b73ffffffffffffffffffffffffffffffffffffffff1614806109e457506109e3816109de6116f7565b6113e4565b5b610a23576040517f08c379a0000000000000000000000000000000000000000000000000000000008152600401610a1a9061300a565b60405180910390fd5b610a2d83836116ff565b505050565b6060610a3d8261168b565b610a7c576040517f08c379a0000000000000000000000000000000000000000000000000000000008152600401610a739061308a565b60405180910390fd5b6009610a87836117b8565b604051602001610a98929190612dd3565b6040516020818303038152906040529050919050565b60075481565b610ac5610abf6116f7565b82611965565b610b04576040517f08c379a0000000000000000000000000000000000000000000000000000000008152600401610afb9061316a565b60405180910390fd5b610b0f838383611a43565b505050565b610b1c6116f7565b73ffffffffffffffffffffffffffffffffffffffff16610b3a610df6565b73ffffffffffffffffffffffffffffffffffffffff1614610b90576040517f08c379a0000000000000000000000000000000000000000000000000000000008152600401610b87906130ea565b60405180910390fd5b610b9981611caa565b50565b610bb7838383604051806020016040528060008152506111f2565b505050565b7f000000000000000000000000000000000000000000000000000000000000000081565b6000806002600084815260200190815260200160002060009054906101000a900473ffffffffffffffffffffffffffffffffffffffff169050600073ffffffffffffffffffffffffffffffffffffffff168173ffffffffffffffffffffffffffffffffffffffff161415610c89576040517f08c379a0000000000000000000000000000000000000000000000000000000008152600401610c809061304a565b60405180910390fd5b80915050919050565b7f000000000000000000000000000000000000000000000000000000000000000081565b60008073ffffffffffffffffffffffffffffffffffffffff168273ffffffffffffffffffffffffffffffffffffffff161415610d27576040517f08c379a0000000000000000000000000000000000000000000000000000000008152600401610d1e9061302a565b60405180910390fd5b600360008373ffffffffffffffffffffffffffffffffffffffff1673ffffffffffffffffffffffffffffffffffffffff168152602001908152602001600020549050919050565b610d766116f7565b73ffffffffffffffffffffffffffffffffffffffff16610d94610df6565b73ffffffffffffffffffffffffffffffffffffffff1614610dea576040517f08c379a0000000000000000000000000000000000000000000000000000000008152600401610de1906130ea565b60405180910390fd5b610df46000611d38565b565b6000600660009054906101000a900473ffffffffffffffffffffffffffffffffffffffff16905090565b610e286116f7565b73ffffffffffffffffffffffffffffffffffffffff16610e46610df6565b73ffffffffffffffffffffffffffffffffffffffff1614610e9c576040517f08c379a0000000000000000000000000000000000000000000000000000000008152600401610e93906130ea565b60405180910390fd5b818160099190610ead929190612485565b505050565b606060018054610ec190613430565b80601f0160208091040260200160405190810160405280929190818152602001828054610eed90613430565b8015610f3a5780601f10610f0f57610100808354040283529160200191610f3a565b820191906000526020600020905b815481529060010190602001808311610f1d57829003601f168201915b5050505050905090565b600860009054906101000a900460ff16610f93576040517f08c379a0000000000000000000000000000000000000000000000000000000008152600401610f8a9061314a565b60405180910390fd5b7f000000000000000000000000000000000000000000000000000000000000000081610fbf91906132da565b3414611000576040517f08c379a0000000000000000000000000000000000000000000000000000000008152600401610ff790612eea565b60405180910390fd5b7f00000000000000000000000000000000000000000000000000000000000000008160075461102f9190613253565b1115611070576040517f08c379a000000000000000000000000000000000000000000000000000000000815260040161106790612fea565b60405180910390fd5b7f000000000000000000000000000000000000000000000000000000000000000081600a60003373ffffffffffffffffffffffffffffffffffffffff1673ffffffffffffffffffffffffffffffffffffffff168152602001908152602001600020546110dc9190613253565b111561111d576040517f08c379a0000000000000000000000000000000000000000000000000000000008152600401611114906130ca565b60405180910390fd5b80600a60003373ffffffffffffffffffffffffffffffffffffffff1673ffffffffffffffffffffffffffffffffffffffff168152602001908152602001600020600082825461116c9190613253565b9250508190555061118461117e610df6565b34611dfe565b60005b818110156111d857600060016007546111a09190613253565b9050600760008154809291906111b590613493565b91905055506111c43382611e8e565b5080806111d090613493565b915050611187565b5050565b6111ee6111e76116f7565b8383611eac565b5050565b6112036111fd6116f7565b83611965565b611242576040517f08c379a00000000000000000000000000000000000000000000000000000000081526004016112399061316a565b60405180910390fd5b61124e84848484612019565b50505050565b606061125f8261168b565b61129e576040517f08c379a00000000000000000000000000000000000000000000000000000000081526004016112959061310a565b60405180910390fd5b60006112a8612075565b905060008151116112c857604051806020016040528060008152506112f3565b806112d2846117b8565b6040516020016112e3929190612daf565b6040516020818303038152906040525b915050919050565b600860009054906101000a900460ff1681565b7f000000000000000000000000000000000000000000000000000000000000000081565b60007f000000000000000000000000000000000000000000000000000000000000000073ffffffffffffffffffffffffffffffffffffffff1663e3a9db1a836040518263ffffffff1660e01b815260040161138d9190612e02565b60206040518083038186803b1580156113a557600080fd5b505afa1580156113b9573d6000803e3d6000fd5b505050506040513d601f19601f820116820180604052508101906113dd9190612926565b9050919050565b6000600560008473ffffffffffffffffffffffffffffffffffffffff1673ffffffffffffffffffffffffffffffffffffffff16815260200190815260200160002060008373ffffffffffffffffffffffffffffffffffffffff1673ffffffffffffffffffffffffffffffffffffffff16815260200190815260200160002060009054906101000a900460ff16905092915050565b600a6020528060005260406000206000915090505481565b6114986116f7565b73ffffffffffffffffffffffffffffffffffffffff166114b6610df6565b73ffffffffffffffffffffffffffffffffffffffff161461150c576040517f08c379a0000000000000000000000000000000000000000000000000000000008152600401611503906130ea565b60405180910390fd5b600073ffffffffffffffffffffffffffffffffffffffff168173ffffffffffffffffffffffffffffffffffffffff16141561157c576040517f08c379a000000000000000000000000000000000000000000000000000000000815260040161157390612f2a565b60405180910390fd5b61158581611d38565b50565b6115906116f7565b73ffffffffffffffffffffffffffffffffffffffff166115ae610df6565b73ffffffffffffffffffffffffffffffffffffffff1614611604576040517f08c379a00000000000000000000000000000000000000000000000000000000081526004016115fb906130ea565b60405180910390fd5b80600860006101000a81548160ff02191690831515021790555050565b60007f01ffc9a7000000000000000000000000000000000000000000000000000000007bffffffffffffffffffffffffffffffffffffffffffffffffffffffff1916827bffffffffffffffffffffffffffffffffffffffffffffffffffffffff1916149050919050565b60008073ffffffffffffffffffffffffffffffffffffffff166002600084815260200190815260200160002060009054906101000a900473ffffffffffffffffffffffffffffffffffffffff1673ffffffffffffffffffffffffffffffffffffffff1614159050919050565b600033905090565b816004600083815260200190815260200160002060006101000a81548173ffffffffffffffffffffffffffffffffffffffff021916908373ffffffffffffffffffffffffffffffffffffffff160217905550808273ffffffffffffffffffffffffffffffffffffffff1661177283610be0565b73ffffffffffffffffffffffffffffffffffffffff167f8c5be1e5ebec7d5bd14f71427d1e84f3dd0314c0f7b2291e5b200ac8c7c3b92560405160405180910390a45050565b60606000821415611800576040518060400160405280600181526020017f30000000000000000000000000000000000000000000000000000000000000008152509050611960565b600082905060005b6000821461183257808061181b90613493565b915050600a8261182b91906132a9565b9150611808565b60008167ffffffffffffffff811115611874577f4e487b7100000000000000000000000000000000000000000000000000000000600052604160045260246000fd5b6040519080825280601f01601f1916602001820160405280156118a65781602001600182028036833780820191505090505b5090505b60008514611959576001826118bf9190613334565b9150600a856118ce91906134dc565b60306118da9190613253565b60f81b818381518110611916577f4e487b7100000000000000000000000000000000000000000000000000000000600052603260045260246000fd5b60200101907effffffffffffffffffffffffffffffffffffffffffffffffffffffffffffff1916908160001a905350600a8561195291906132a9565b94506118aa565b8093505050505b919050565b60006119708261168b565b6119af576040517f08c379a00000000000000000000000000000000000000000000000000000000081526004016119a690612fca565b60405180910390fd5b60006119ba83610be0565b90508073ffffffffffffffffffffffffffffffffffffffff168473ffffffffffffffffffffffffffffffffffffffff1614806119fc57506119fb81856113e4565b5b80611a3a57508373ffffffffffffffffffffffffffffffffffffffff16611a2284610895565b73ffffffffffffffffffffffffffffffffffffffff16145b91505092915050565b8273ffffffffffffffffffffffffffffffffffffffff16611a6382610be0565b73ffffffffffffffffffffffffffffffffffffffff1614611ab9576040517f08c379a0000000000000000000000000000000000000000000000000000000008152600401611ab090612f4a565b60405180910390fd5b600073ffffffffffffffffffffffffffffffffffffffff168273ffffffffffffffffffffffffffffffffffffffff161415611b29576040517f08c379a0000000000000000000000000000000000000000000000000000000008152600401611b2090612f8a565b60405180910390fd5b611b3483838361208c565b611b3f6000826116ff565b6001600360008573ffffffffffffffffffffffffffffffffffffffff1673ffffffffffffffffffffffffffffffffffffffff1681526020019081526020016000206000828254611b8f9190613334565b925050819055506001600360008473ffffffffffffffffffffffffffffffffffffffff1673ffffffffffffffffffffffffffffffffffffffff1681526020019081526020016000206000828254611be69190613253565b92505081905550816002600083815260200190815260200160002060006101000a81548173ffffffffffffffffffffffffffffffffffffffff021916908373ffffffffffffffffffffffffffffffffffffffff160217905550808273ffffffffffffffffffffffffffffffffffffffff168473ffffffffffffffffffffffffffffffffffffffff167fddf252ad1be2c89b69c2b068fc378daa952ba7f163c4a11628f55a4df523b3ef60405160405180910390a4611ca5838383612091565b505050565b7f000000000000000000000000000000000000000000000000000000000000000073ffffffffffffffffffffffffffffffffffffffff166351cff8d9826040518263ffffffff1660e01b8152600401611d039190612e1d565b600060405180830381600087803b158015611d1d57600080fd5b505af1158015611d31573d6000803e3d6000fd5b5050505050565b6000600660009054906101000a900473ffffffffffffffffffffffffffffffffffffffff16905081600660006101000a81548173ffffffffffffffffffffffffffffffffffffffff021916908373ffffffffffffffffffffffffffffffffffffffff1602179055508173ffffffffffffffffffffffffffffffffffffffff168173ffffffffffffffffffffffffffffffffffffffff167f8be0079c531659141344cd1fd0a4f28419497f9722a3daafe3b4186f6b6457e060405160405180910390a35050565b7f000000000000000000000000000000000000000000000000000000000000000073ffffffffffffffffffffffffffffffffffffffff1663f340fa0182846040518363ffffffff1660e01b8152600401611e589190612e02565b6000604051808303818588803b158015611e7157600080fd5b505af1158015611e85573d6000803e3d6000fd5b50505050505050565b611ea8828260405180602001604052806000815250612096565b5050565b8173ffffffffffffffffffffffffffffffffffffffff168373ffffffffffffffffffffffffffffffffffffffff161415611f1b576040517f08c379a0000000000000000000000000000000000000000000000000000000008152600401611f1290612faa565b60405180910390fd5b80600560008573ffffffffffffffffffffffffffffffffffffffff1673ffffffffffffffffffffffffffffffffffffffff16815260200190815260200160002060008473ffffffffffffffffffffffffffffffffffffffff1673ffffffffffffffffffffffffffffffffffffffff16815260200190815260200160002060006101000a81548160ff0219169083151502179055508173ffffffffffffffffffffffffffffffffffffffff168373ffffffffffffffffffffffffffffffffffffffff167f17307eab39ab6107e8899845ad3d59bd9653f200f220920489ca2b5937696c318360405161200c9190612ead565b60405180910390a3505050565b612024848484611a43565b612030848484846120f1565b61206f576040517f08c379a000000000000000000000000000000000000000000000000000000000815260040161206690612f0a565b60405180910390fd5b50505050565b606060405180602001604052806000815250905090565b505050565b505050565b6120a08383612288565b6120ad60008484846120f1565b6120ec576040517f08c379a00000000000000000000000000000000000000000000000000000000081526004016120e390612f0a565b60405180910390fd5b505050565b60006121128473ffffffffffffffffffffffffffffffffffffffff16612462565b1561227b578373ffffffffffffffffffffffffffffffffffffffff1663150b7a0261213b6116f7565b8786866040518563ffffffff1660e01b815260040161215d9493929190612e38565b602060405180830381600087803b15801561217757600080fd5b505af19250505080156121a857506040513d601f19601f820116820180604052508101906121a5919061288f565b60015b61222b573d80600081146121d8576040519150601f19603f3d011682016040523d82523d6000602084013e6121dd565b606091505b50600081511415612223576040517f08c379a000000000000000000000000000000000000000000000000000000000815260040161221a90612f0a565b60405180910390fd5b805181602001fd5b63150b7a0260e01b7bffffffffffffffffffffffffffffffffffffffffffffffffffffffff1916817bffffffffffffffffffffffffffffffffffffffffffffffffffffffff191614915050612280565b600190505b949350505050565b600073ffffffffffffffffffffffffffffffffffffffff168273ffffffffffffffffffffffffffffffffffffffff1614156122f8576040517f08c379a00000000000000000000000000000000000000000000000000000000081526004016122ef9061306a565b60405180910390fd5b6123018161168b565b15612341576040517f08c379a000000000000000000000000000000000000000000000000000000000815260040161233890612f6a565b60405180910390fd5b61234d6000838361208c565b6001600360008473ffffffffffffffffffffffffffffffffffffffff1673ffffffffffffffffffffffffffffffffffffffff168152602001908152602001600020600082825461239d9190613253565b92505081905550816002600083815260200190815260200160002060006101000a81548173ffffffffffffffffffffffffffffffffffffffff021916908373ffffffffffffffffffffffffffffffffffffffff160217905550808273ffffffffffffffffffffffffffffffffffffffff16600073ffffffffffffffffffffffffffffffffffffffff167fddf252ad1be2c89b69c2b068fc378daa952ba7f163c4a11628f55a4df523b3ef60405160405180910390a461245e60008383612091565b5050565b6000808273ffffffffffffffffffffffffffffffffffffffff163b119050919050565b82805461249190613430565b90600052602060002090601f0160209004810192826124b357600085556124fa565b82601f106124cc57803560ff19168380011785556124fa565b828001600101855582156124fa579182015b828111156124f95782358255916020019190600101906124de565b5b509050612507919061250b565b5090565b5b8082111561252457600081600090555060010161250c565b5090565b600061253b612536846131ca565b6131a5565b90508281526020810184848401111561255357600080fd5b61255e8482856133ee565b509392505050565b60008135905061257581613b28565b92915050565b60008135905061258a81613b3f565b92915050565b60008135905061259f81613b56565b92915050565b6000813590506125b481613b6d565b92915050565b6000815190506125c981613b6d565b92915050565b600082601f8301126125e057600080fd5b81356125f0848260208601612528565b91505092915050565b60008083601f84011261260b57600080fd5b8235905067ffffffffffffffff81111561262457600080fd5b60208301915083600182028301111561263c57600080fd5b9250929050565b60008135905061265281613b84565b92915050565b60008151905061266781613b84565b92915050565b60006020828403121561267f57600080fd5b600061268d84828501612566565b91505092915050565b6000602082840312156126a857600080fd5b60006126b68482850161257b565b91505092915050565b600080604083850312156126d257600080fd5b60006126e085828601612566565b92505060206126f185828601612566565b9150509250929050565b60008060006060848603121561271057600080fd5b600061271e86828701612566565b935050602061272f86828701612566565b925050604061274086828701612643565b9150509250925092565b6000806000806080858703121561276057600080fd5b600061276e87828801612566565b945050602061277f87828801612566565b935050604061279087828801612643565b925050606085013567ffffffffffffffff8111156127ad57600080fd5b6127b9878288016125cf565b91505092959194509250565b600080604083850312156127d857600080fd5b60006127e685828601612566565b92505060206127f785828601612590565b9150509250929050565b6000806040838503121561281457600080fd5b600061282285828601612566565b925050602061283385828601612643565b9150509250929050565b60006020828403121561284f57600080fd5b600061285d84828501612590565b91505092915050565b60006020828403121561287857600080fd5b6000612886848285016125a5565b91505092915050565b6000602082840312156128a157600080fd5b60006128af848285016125ba565b91505092915050565b600080602083850312156128cb57600080fd5b600083013567ffffffffffffffff8111156128e557600080fd5b6128f1858286016125f9565b92509250509250929050565b60006020828403121561290f57600080fd5b600061291d84828501612643565b91505092915050565b60006020828403121561293857600080fd5b600061294684828501612658565b91505092915050565b6129588161337a565b82525050565b61296781613368565b82525050565b6129768161338c565b82525050565b600061298782613210565b6129918185613226565b93506129a18185602086016133fd565b6129aa816135c9565b840191505092915050565b60006129c08261321b565b6129ca8185613237565b93506129da8185602086016133fd565b6129e3816135c9565b840191505092915050565b60006129f98261321b565b612a038185613248565b9350612a138185602086016133fd565b80840191505092915050565b60008154612a2c81613430565b612a368186613248565b94506001821660008114612a515760018114612a6257612a95565b60ff19831686528186019350612a95565b612a6b856131fb565b60005b83811015612a8d57815481890152600182019150602081019050612a6e565b838801955050505b50505092915050565b6000612aab601083613237565b9150612ab6826135da565b602082019050919050565b6000612ace603283613237565b9150612ad982613603565b604082019050919050565b6000612af1602683613237565b9150612afc82613652565b604082019050919050565b6000612b14602583613237565b9150612b1f826136a1565b604082019050919050565b6000612b37601c83613237565b9150612b42826136f0565b602082019050919050565b6000612b5a602483613237565b9150612b6582613719565b604082019050919050565b6000612b7d601983613237565b9150612b8882613768565b602082019050919050565b6000612ba0602c83613237565b9150612bab82613791565b604082019050919050565b6000612bc3600883613237565b9150612bce826137e0565b602082019050919050565b6000612be6603883613237565b9150612bf182613809565b604082019050919050565b6000612c09602a83613237565b9150612c1482613858565b604082019050919050565b6000612c2c602983613237565b9150612c37826138a7565b604082019050919050565b6000612c4f602083613237565b9150612c5a826138f6565b602082019050919050565b6000612c72601583613237565b9150612c7d8261391f565b602082019050919050565b6000612c95602c83613237565b9150612ca082613948565b604082019050919050565b6000612cb8600583613248565b9150612cc382613997565b600582019050919050565b6000612cdb601183613237565b9150612ce6826139c0565b602082019050919050565b6000612cfe602083613237565b9150612d09826139e9565b602082019050919050565b6000612d21602f83613237565b9150612d2c82613a12565b604082019050919050565b6000612d44602183613237565b9150612d4f82613a61565b604082019050919050565b6000612d67601483613237565b9150612d7282613ab0565b602082019050919050565b6000612d8a603183613237565b9150612d9582613ad9565b604082019050919050565b612da9816133e4565b82525050565b6000612dbb82856129ee565b9150612dc782846129ee565b91508190509392505050565b6000612ddf8285612a1f565b9150612deb82846129ee565b9150612df682612cab565b91508190509392505050565b6000602082019050612e17600083018461295e565b92915050565b6000602082019050612e32600083018461294f565b92915050565b6000608082019050612e4d600083018761295e565b612e5a602083018661295e565b612e676040830185612da0565b8181036060830152612e79818461297c565b905095945050505050565b6000604082019050612e99600083018561295e565b612ea66020830184612da0565b9392505050565b6000602082019050612ec2600083018461296d565b92915050565b60006020820190508181036000830152612ee281846129b5565b905092915050565b60006020820190508181036000830152612f0381612a9e565b9050919050565b60006020820190508181036000830152612f2381612ac1565b9050919050565b60006020820190508181036000830152612f4381612ae4565b9050919050565b60006020820190508181036000830152612f6381612b07565b9050919050565b60006020820190508181036000830152612f8381612b2a565b9050919050565b60006020820190508181036000830152612fa381612b4d565b9050919050565b60006020820190508181036000830152612fc381612b70565b9050919050565b60006020820190508181036000830152612fe381612b93565b9050919050565b6000602082019050818103600083015261300381612bb6565b9050919050565b6000602082019050818103600083015261302381612bd9565b9050919050565b6000602082019050818103600083015261304381612bfc565b9050919050565b6000602082019050818103600083015261306381612c1f565b9050919050565b6000602082019050818103600083015261308381612c42565b9050919050565b600060208201905081810360008301526130a381612c65565b9050919050565b600060208201905081810360008301526130c381612c88565b9050919050565b600060208201905081810360008301526130e381612cce565b9050919050565b6000602082019050818103600083015261310381612cf1565b9050919050565b6000602082019050818103600083015261312381612d14565b9050919050565b6000602082019050818103600083015261314381612d37565b9050919050565b6000602082019050818103600083015261316381612d5a565b9050919050565b6000602082019050818103600083015261318381612d7d565b9050919050565b600060208201905061319f6000830184612da0565b92915050565b60006131af6131c0565b90506131bb8282613462565b919050565b6000604051905090565b600067ffffffffffffffff8211156131e5576131e461359a565b5b6131ee826135c9565b9050602081019050919050565b60008190508160005260206000209050919050565b600081519050919050565b600081519050919050565b600082825260208201905092915050565b600082825260208201905092915050565b600081905092915050565b600061325e826133e4565b9150613269836133e4565b9250827fffffffffffffffffffffffffffffffffffffffffffffffffffffffffffffffff0382111561329e5761329d61350d565b5b828201905092915050565b60006132b4826133e4565b91506132bf836133e4565b9250826132cf576132ce61353c565b5b828204905092915050565b60006132e5826133e4565b91506132f0836133e4565b9250817fffffffffffffffffffffffffffffffffffffffffffffffffffffffffffffffff04831182151516156133295761332861350d565b5b828202905092915050565b600061333f826133e4565b915061334a836133e4565b92508282101561335d5761335c61350d565b5b828203905092915050565b6000613373826133c4565b9050919050565b6000613385826133c4565b9050919050565b60008115159050919050565b60007fffffffff0000000000000000000000000000000000000000000000000000000082169050919050565b600073ffffffffffffffffffffffffffffffffffffffff82169050919050565b6000819050919050565b82818337600083830152505050565b60005b8381101561341b578082015181840152602081019050613400565b8381111561342a576000848401525b50505050565b6000600282049050600182168061344857607f821691505b6020821081141561345c5761345b61356b565b5b50919050565b61346b826135c9565b810181811067ffffffffffffffff8211171561348a5761348961359a565b5b80604052505050565b600061349e826133e4565b91507fffffffffffffffffffffffffffffffffffffffffffffffffffffffffffffffff8214156134d1576134d061350d565b5b600182019050919050565b60006134e7826133e4565b91506134f2836133e4565b9250826135025761350161353c565b5b828206905092915050565b7f4e487b7100000000000000000000000000000000000000000000000000000000600052601160045260246000fd5b7f4e487b7100000000000000000000000000000000000000000000000000000000600052601260045260246000fd5b7f4e487b7100000000000000000000000000000000000000000000000000000000600052602260045260246000fd5b7f4e487b7100000000000000000000000000000000000000000000000000000000600052604160045260246000fd5b6000601f19601f8301169050919050565b7f77726f6e67206d696e742076616c756500000000000000000000000000000000600082015250565b7f4552433732313a207472616e7366657220746f206e6f6e20455243373231526560008201527f63656976657220696d706c656d656e7465720000000000000000000000000000602082015250565b7f4f776e61626c653a206e6577206f776e657220697320746865207a65726f206160008201527f6464726573730000000000000000000000000000000000000000000000000000602082015250565b7f4552433732313a207472616e736665722066726f6d20696e636f72726563742060008201527f6f776e6572000000000000000000000000000000000000000000000000000000602082015250565b7f4552433732313a20746f6b656e20616c7265616479206d696e74656400000000600082015250565b7f4552433732313a207472616e7366657220746f20746865207a65726f2061646460008201527f7265737300000000000000000000000000000000000000000000000000000000602082015250565b7f4552433732313a20617070726f766520746f2063616c6c657200000000000000600082015250565b7f4552433732313a206f70657261746f7220717565727920666f72206e6f6e657860008201527f697374656e7420746f6b656e0000000000000000000000000000000000000000602082015250565b7f736f6c64206f7574000000000000000000000000000000000000000000000000600082015250565b7f4552433732313a20617070726f76652063616c6c6572206973206e6f74206f7760008201527f6e6572206e6f7220617070726f76656420666f7220616c6c0000000000000000602082015250565b7f4552433732313a2062616c616e636520717565727920666f7220746865207a6560008201527f726f206164647265737300000000000000000000000000000000000000000000602082015250565b7f4552433732313a206f776e657220717565727920666f72206e6f6e657869737460008201527f656e7420746f6b656e0000000000000000000000000000000000000000000000602082015250565b7f4552433732313a206d696e7420746f20746865207a65726f2061646472657373600082015250565b7f546f6b656e20646f6573206e6f742065786973742e0000000000000000000000600082015250565b7f4552433732313a20617070726f76656420717565727920666f72206e6f6e657860008201527f697374656e7420746f6b656e0000000000000000000000000000000000000000602082015250565b7f2e6a736f6e000000000000000000000000000000000000000000000000000000600082015250565b7f657863656564206d61782077616c6c6574000000000000000000000000000000600082015250565b7f4f776e61626c653a2063616c6c6572206973206e6f7420746865206f776e6572600082015250565b7f4552433732314d657461646174613a2055524920717565727920666f72206e6f60008201527f6e6578697374656e7420746f6b656e0000000000000000000000000000000000602082015250565b7f4552433732313a20617070726f76616c20746f2063757272656e74206f776e6560008201527f7200000000000000000000000000000000000000000000000000000000000000602082015250565b7f4d696e74696e67206e6f7420656e61626c65642e000000000000000000000000600082015250565b7f4552433732313a207472616e736665722063616c6c6572206973206e6f74206f60008201527f776e6572206e6f7220617070726f766564000000000000000000000000000000602082015250565b613b3181613368565b8114613b3c57600080fd5b50565b613b488161337a565b8114613b5357600080fd5b50565b613b5f8161338c565b8114613b6a57600080fd5b50565b613b7681613398565b8114613b8157600080fd5b50565b613b8d816133e4565b8114613b9857600080fd5b5056fea264697066735822122086270011a37c80ca9fb4e12b6ccecc5ed80452e3cd67e2a3a3529b4a89d47f1164736f6c63430008040033608060405234801561001057600080fd5b5061002d61002261003260201b60201c565b61003a60201b60201c565b6100fe565b600033905090565b60008060009054906101000a900473ffffffffffffffffffffffffffffffffffffffff169050816000806101000a81548173ffffffffffffffffffffffffffffffffffffffff021916908373ffffffffffffffffffffffffffffffffffffffff1602179055508173ffffffffffffffffffffffffffffffffffffffff168173ffffffffffffffffffffffffffffffffffffffff167f8be0079c531659141344cd1fd0a4f28419497f9722a3daafe3b4186f6b6457e060405160405180910390a35050565b610bfc8061010d6000396000f3fe6080604052600436106100555760003560e01c806351cff8d91461005a578063715018a6146100835780638da5cb5b1461009a578063e3a9db1a146100c5578063f2fde38b14610102578063f340fa011461012b575b600080fd5b34801561006657600080fd5b50610081600480360381019061007c91906107f5565b610147565b005b34801561008f57600080fd5b506100986102c7565b005b3480156100a657600080fd5b506100af61034f565b6040516100bc9190610900565b60405180910390f35b3480156100d157600080fd5b506100ec60048036038101906100e791906107cc565b610378565b6040516100f9919061099b565b60405180910390f35b34801561010e57600080fd5b50610129600480360381019061012491906107cc565b6103c1565b005b610145600480360381019061014091906107cc565b6104b9565b005b61014f6105e2565b73ffffffffffffffffffffffffffffffffffffffff1661016d61034f565b73ffffffffffffffffffffffffffffffffffffffff16146101c3576040517f08c379a00000000000000000000000000000000000000000000000000000000081526004016101ba9061097b565b60405180910390fd5b6000600160008373ffffffffffffffffffffffffffffffffffffffff1673ffffffffffffffffffffffffffffffffffffffff1681526020019081526020016000205490506000600160008473ffffffffffffffffffffffffffffffffffffffff1673ffffffffffffffffffffffffffffffffffffffff16815260200190815260200160002081905550610275818373ffffffffffffffffffffffffffffffffffffffff166105ea90919063ffffffff16565b8173ffffffffffffffffffffffffffffffffffffffff167f7084f5476618d8e60b11ef0d7d3f06914655adb8793e28ff7f018d4c76d505d5826040516102bb919061099b565b60405180910390a25050565b6102cf6105e2565b73ffffffffffffffffffffffffffffffffffffffff166102ed61034f565b73ffffffffffffffffffffffffffffffffffffffff1614610343576040517f08c379a000000000000000000000000000000000000000000000000000000000815260040161033a9061097b565b60405180910390fd5b61034d60006106de565b565b60008060009054906101000a900473ffffffffffffffffffffffffffffffffffffffff16905090565b6000600160008373ffffffffffffffffffffffffffffffffffffffff1673ffffffffffffffffffffffffffffffffffffffff168152602001908152602001600020549050919050565b6103c96105e2565b73ffffffffffffffffffffffffffffffffffffffff166103e761034f565b73ffffffffffffffffffffffffffffffffffffffff161461043d576040517f08c379a00000000000000000000000000000000000000000000000000000000081526004016104349061097b565b60405180910390fd5b600073ffffffffffffffffffffffffffffffffffffffff168173ffffffffffffffffffffffffffffffffffffffff1614156104ad576040517f08c379a00000000000000000000000000000000000000000000000000000000081526004016104a49061091b565b60405180910390fd5b6104b6816106de565b50565b6104c16105e2565b73ffffffffffffffffffffffffffffffffffffffff166104df61034f565b73ffffffffffffffffffffffffffffffffffffffff1614610535576040517f08c379a000000000000000000000000000000000000000000000000000000000815260040161052c9061097b565b60405180910390fd5b600034905080600160008473ffffffffffffffffffffffffffffffffffffffff1673ffffffffffffffffffffffffffffffffffffffff168152602001908152602001600020600082825461058991906109d2565b925050819055508173ffffffffffffffffffffffffffffffffffffffff167f2da466a7b24304f47e87fa2e1e5a81b9831ce54fec19055ce277ca2f39ba42c4826040516105d6919061099b565b60405180910390a25050565b600033905090565b8047101561062d576040517f08c379a00000000000000000000000000000000000000000000000000000000081526004016106249061095b565b60405180910390fd5b60008273ffffffffffffffffffffffffffffffffffffffff1682604051610653906108eb565b60006040518083038185875af1925050503d8060008114610690576040519150601f19603f3d011682016040523d82523d6000602084013e610695565b606091505b50509050806106d9576040517f08c379a00000000000000000000000000000000000000000000000000000000081526004016106d09061093b565b60405180910390fd5b505050565b60008060009054906101000a900473ffffffffffffffffffffffffffffffffffffffff169050816000806101000a81548173ffffffffffffffffffffffffffffffffffffffff021916908373ffffffffffffffffffffffffffffffffffffffff1602179055508173ffffffffffffffffffffffffffffffffffffffff168173ffffffffffffffffffffffffffffffffffffffff167f8be0079c531659141344cd1fd0a4f28419497f9722a3daafe3b4186f6b6457e060405160405180910390a35050565b6000813590506107b181610b98565b92915050565b6000813590506107c681610baf565b92915050565b6000602082840312156107de57600080fd5b60006107ec848285016107a2565b91505092915050565b60006020828403121561080757600080fd5b6000610815848285016107b7565b91505092915050565b61082781610a28565b82525050565b600061083a6026836109c1565b915061084582610aa5565b604082019050919050565b600061085d603a836109c1565b915061086882610af4565b604082019050919050565b6000610880601d836109c1565b915061088b82610b43565b602082019050919050565b60006108a36020836109c1565b91506108ae82610b6c565b602082019050919050565b60006108c66000836109b6565b91506108d182610b95565b600082019050919050565b6108e581610a6c565b82525050565b60006108f6826108b9565b9150819050919050565b6000602082019050610915600083018461081e565b92915050565b600060208201905081810360008301526109348161082d565b9050919050565b6000602082019050818103600083015261095481610850565b9050919050565b6000602082019050818103600083015261097481610873565b9050919050565b6000602082019050818103600083015261099481610896565b9050919050565b60006020820190506109b060008301846108dc565b92915050565b600081905092915050565b600082825260208201905092915050565b60006109dd82610a6c565b91506109e883610a6c565b9250827fffffffffffffffffffffffffffffffffffffffffffffffffffffffffffffffff03821115610a1d57610a1c610a76565b5b828201905092915050565b6000610a3382610a4c565b9050919050565b6000610a4582610a4c565b9050919050565b600073ffffffffffffffffffffffffffffffffffffffff82169050919050565b6000819050919050565b7f4e487b7100000000000000000000000000000000000000000000000000000000600052601160045260246000fd5b7f4f776e61626c653a206e6577206f776e657220697320746865207a65726f206160008201527f6464726573730000000000000000000000000000000000000000000000000000602082015250565b7f416464726573733a20756e61626c6520746f2073656e642076616c75652c207260008201527f6563697069656e74206d61792068617665207265766572746564000000000000602082015250565b7f416464726573733a20696e73756666696369656e742062616c616e6365000000600082015250565b7f4f776e61626c653a2063616c6c6572206973206e6f7420746865206f776e6572600082015250565b50565b610ba181610a28565b8114610bac57600080fd5b50565b610bb881610a3a565b8114610bc357600080fd5b5056fea2646970667358221220b2a6db4c00e57e7ef608d5e81a53c60e6688cd2b85172cc39bb6858c6c6988ec64736f6c63430008040033",
    "linkReferences": {},
    "deployedLinkReferences": {}
}